{
  "contractName": "CarBase",
  "abi": [
    {
      "constant": false,
      "inputs": [],
      "name": "renounceOwnership",
      "outputs": [],
      "payable": false,
      "stateMutability": "nonpayable",
      "type": "function"
    },
    {
      "constant": true,
      "inputs": [],
      "name": "owner",
      "outputs": [
        {
          "name": "",
          "type": "address"
        }
      ],
      "payable": false,
      "stateMutability": "view",
      "type": "function"
    },
    {
      "constant": true,
      "inputs": [],
      "name": "isOwner",
      "outputs": [
        {
          "name": "",
          "type": "bool"
        }
      ],
      "payable": false,
      "stateMutability": "view",
      "type": "function"
    },
    {
      "constant": false,
      "inputs": [
        {
          "name": "newOwner",
          "type": "address"
        }
      ],
      "name": "transferOwnership",
      "outputs": [],
      "payable": false,
      "stateMutability": "nonpayable",
      "type": "function"
    },
    {
      "anonymous": false,
      "inputs": [
        {
          "indexed": false,
          "name": "_id",
          "type": "uint256"
        },
        {
          "indexed": false,
          "name": "_renter",
          "type": "address"
        }
      ],
      "name": "RentCar",
      "type": "event"
    },
    {
      "anonymous": false,
      "inputs": [
        {
          "indexed": false,
          "name": "_id",
          "type": "uint256"
        },
        {
          "indexed": false,
          "name": "_name",
          "type": "string"
        }
      ],
      "name": "NewCar",
      "type": "event"
    },
    {
      "anonymous": false,
      "inputs": [
        {
          "indexed": true,
          "name": "previousOwner",
          "type": "address"
        },
        {
          "indexed": true,
          "name": "newOwner",
          "type": "address"
        }
      ],
      "name": "OwnershipTransferred",
      "type": "event"
    },
    {
      "constant": true,
      "inputs": [
        {
          "name": "_id",
          "type": "uint256"
        },
        {
          "name": "_age",
          "type": "uint16"
        },
        {
          "name": "_owner",
          "type": "address"
        }
      ],
      "name": "Is_Rented",
      "outputs": [
        {
          "name": "",
          "type": "bool"
        }
      ],
      "payable": false,
      "stateMutability": "view",
      "type": "function"
    },
    {
      "constant": true,
      "inputs": [
        {
          "name": "_id",
          "type": "uint256"
        }
      ],
      "name": "Is_Rented",
      "outputs": [
        {
          "name": "",
          "type": "bool"
        }
      ],
      "payable": false,
      "stateMutability": "view",
      "type": "function"
    }
  ],
  "bytecode": "0x6080604052336000806101000a81548173ffffffffffffffffffffffffffffffffffffffff021916908373ffffffffffffffffffffffffffffffffffffffff1602179055506000809054906101000a900473ffffffffffffffffffffffffffffffffffffffff1673ffffffffffffffffffffffffffffffffffffffff16600073ffffffffffffffffffffffffffffffffffffffff167f8be0079c531659141344cd1fd0a4f28419497f9722a3daafe3b4186f6b6457e060405160405180910390a3610664806100cf6000396000f3fe60806040526004361061006d576000357c0100000000000000000000000000000000000000000000000000000000900463ffffffff168063715018a6146100725780638da5cb5b146100895780638f32d59b146100e0578063d653f60f1461010f578063f2fde38b14610162575b600080fd5b34801561007e57600080fd5b506100876101b3565b005b34801561009557600080fd5b5061009e6102ee565b604051808273ffffffffffffffffffffffffffffffffffffffff1673ffffffffffffffffffffffffffffffffffffffff16815260200191505060405180910390f35b3480156100ec57600080fd5b506100f5610317565b604051808215151515815260200191505060405180910390f35b34801561011b57600080fd5b506101486004803603602081101561013257600080fd5b810190808035906020019092919050505061036e565b604051808215151515815260200191505060405180910390f35b34801561016e57600080fd5b506101b16004803603602081101561018557600080fd5b81019080803573ffffffffffffffffffffffffffffffffffffffff169060200190929190505050610427565b005b6101bb610317565b151561022f576040517f08c379a00000000000000000000000000000000000000000000000000000000081526004018080602001828103825260208152602001807f4f776e61626c653a2063616c6c6572206973206e6f7420746865206f776e657281525060200191505060405180910390fd5b600073ffffffffffffffffffffffffffffffffffffffff166000809054906101000a900473ffffffffffffffffffffffffffffffffffffffff1673ffffffffffffffffffffffffffffffffffffffff167f8be0079c531659141344cd1fd0a4f28419497f9722a3daafe3b4186f6b6457e060405160405180910390a360008060006101000a81548173ffffffffffffffffffffffffffffffffffffffff021916908373ffffffffffffffffffffffffffffffffffffffff160217905550565b60008060009054906101000a900473ffffffffffffffffffffffffffffffffffffffff16905090565b60008060009054906101000a900473ffffffffffffffffffffffffffffffffffffffff1673ffffffffffffffffffffffffffffffffffffffff163373ffffffffffffffffffffffffffffffffffffffff1614905090565b600060038281548110151561037f57fe5b906000526020600020906006020160020160009054906101000a900473ffffffffffffffffffffffffffffffffffffffff1673ffffffffffffffffffffffffffffffffffffffff166003838154811015156103d657fe5b906000526020600020906006020160010160009054906101000a900473ffffffffffffffffffffffffffffffffffffffff1673ffffffffffffffffffffffffffffffffffffffff1614159050919050565b61042f610317565b15156104a3576040517f08c379a00000000000000000000000000000000000000000000000000000000081526004018080602001828103825260208152602001807f4f776e61626c653a2063616c6c6572206973206e6f7420746865206f776e657281525060200191505060405180910390fd5b6104ac816104af565b50565b600073ffffffffffffffffffffffffffffffffffffffff168173ffffffffffffffffffffffffffffffffffffffff161415151561057a576040517f08c379a00000000000000000000000000000000000000000000000000000000081526004018080602001828103825260268152602001807f4f776e61626c653a206e6577206f776e657220697320746865207a65726f206181526020017f646472657373000000000000000000000000000000000000000000000000000081525060400191505060405180910390fd5b8073ffffffffffffffffffffffffffffffffffffffff166000809054906101000a900473ffffffffffffffffffffffffffffffffffffffff1673ffffffffffffffffffffffffffffffffffffffff167f8be0079c531659141344cd1fd0a4f28419497f9722a3daafe3b4186f6b6457e060405160405180910390a3806000806101000a81548173ffffffffffffffffffffffffffffffffffffffff021916908373ffffffffffffffffffffffffffffffffffffffff1602179055505056fea165627a7a723058207a54ecd602681b7ccddb01ba9344d232a173670906282346bbef88eaa8e331bd0029",
  "source": "pragma solidity ^0.5.0;\nimport \"./ownable.sol\";\nimport \"./SafeMath.sol\";\n\ncontract CarBase is Ownable{\n\n    using SafeMath for uint256;\n    using SafeMath16 for uint16;\n\n    event RentCar(uint _id, address _renter);\n    event NewCar(uint _id, string _name);\n\n    mapping (uint => address) car2owner;\n    mapping (address => uint) ownerTokenCount;\n    \n    struct Car {\n        string name;\n        address payable owner;\n        address payable renter;\n        uint rent_time; // now + expected renting time\n        uint id;\n        uint16 age;\n        uint16 price;\n        uint16 crash_number;\n    }\n\n    Car[] cars;\n\n    function Add_Car(string memory _name, uint16 _age, address payable _owner) internal { // call by car wallet\n        Car memory newcar = Car(_name, _owner, _owner, now, 0, _age, 10, 0);\n        uint id = cars.push(newcar) - 1;\n        cars[id].id = id;\n        car2owner[id] = _owner;\n        ownerTokenCount[_owner]++;\n        emit NewCar(id, _name);\n\n        /*Car memory newcar = Car(_name, now, 0, _age, 10, 0, false);\n        VToken memory vtoken = VToken(newcar, msg.sender, msg.sender);\n        uint16 id = uint16(vtokens.push(vtoken) - 1);// add to array and update id value\n        vtokens[id].car.id = id;\n        car2owner[id] = msg.sender;\n        emit NewVtoken(id, _name);*/\n    }\n\n    function Is_Rented(uint _id) public view returns (bool){\n        //return cars[_id].is_rented;\n        /*return vtokens[_id].car.is_rented;*/\n        return (cars[_id].owner != cars[_id].renter);\n    }\n/*\n    function Rent_Car(uint _id) public payable {\n        require(Is_Rented(_id) == false && msg.value == 1 ether);\n\n        ownerTokenCount[cars[_id].owner]--;\n\n        cars[_id].renter = msg.sender;\n        cars[_id].rent_time = now + basic_renttime * 60;\n        cars[_id].is_rented = true;\n        cars[_id].owner.transfer(1 ether); //for bail\n\n        emit RentCar(_id, msg.sender);\n\n        require(Is_Rented(_id) == false && msg.value >= 1 ether);\n\n        vtokens[_id].renter = msg.sender;\n        vtokens[_id].car.rent_time = now + basic_renttime * 60;\n        vtokens[_id].car.is_rented = true;\n\n        vtokens[_id].owner.transfer(1 ether); // for bail\n\n        emit RentCar(_id, msg.sender);\n    }\n\n    function Return_Car(uint _id, uint _oil) public payable {\n        require(Is_Rented(_id) && msg.sender == vtokens[_id].renter);\n        uint toOwner;\n        uint toRenter;\n\n        if (vtokens[_id].car.rent_time >= now) {\n            toOwner = vtokens[_id].car.price + _oil * 50;\n            toRenter = 1;\n            vtokens[_id].owner.transfer(toOwner * 1 szabo);\n            vtokens[_id].renter.transfer(toRenter * 1 ether);\n        }\n        else {\n            toOwner = vtokens[_id].car.price + _oil * 50;\n            toRenter = 0; //penalty for delay\n            vtokens[_id].owner.transfer(toOwner * 1 szabo);\n        }\n\n        vtokens[_id].car.is_rented = false;\n        vtokens[_id].renter = vtokens[_id].owner;\n\n    }\n    */\n\n}",
  "sourcePath": "/home/stevenchen/桌面/Automotive-contract/contracts/CarBase.sol",
  "compiler": {
    "name": "solc",
    "version": "0.5.0+commit.1d4f565a.Emscripten.clang"
  },
  "schemaVersion": "3.0.9",
  "updatedAt": "2019-05-24T14:13:02.825Z",
  "devdoc": {
    "methods": {
      "isOwner()": {
        "return": "true if `msg.sender` is the owner of the contract."
      },
      "owner()": {
        "return": "the address of the owner."
      },
      "renounceOwnership()": {
        "details": "Allows the current owner to relinquish control of the contract. It will not be possible to call the functions with the `onlyOwner` modifier anymore."
      },
      "transferOwnership(address)": {
        "details": "Allows the current owner to transfer control of the contract to a newOwner.",
        "params": {
          "newOwner": "The address to transfer ownership to."
        }
      }
    }
  },
  "userdoc": {
    "methods": {
      "renounceOwnership()": {
        "notice": "Renouncing ownership will leave the contract without an owner, thereby removing any functionality that is only available to the owner."
      }
    }
  }
}