{
  "contractName": "CarBase",
  "abi": [
    {
      "constant": false,
      "inputs": [],
      "name": "renounceOwnership",
      "outputs": [],
      "payable": false,
      "stateMutability": "nonpayable",
      "type": "function"
    },
    {
      "constant": true,
      "inputs": [],
      "name": "owner",
      "outputs": [
        {
          "name": "",
          "type": "address"
        }
      ],
      "payable": false,
      "stateMutability": "view",
      "type": "function"
    },
    {
      "constant": true,
      "inputs": [],
      "name": "isOwner",
      "outputs": [
        {
          "name": "",
          "type": "bool"
        }
      ],
      "payable": false,
      "stateMutability": "view",
      "type": "function"
    },
    {
      "constant": false,
      "inputs": [
        {
          "name": "newOwner",
          "type": "address"
        }
      ],
      "name": "transferOwnership",
      "outputs": [],
      "payable": false,
      "stateMutability": "nonpayable",
      "type": "function"
    },
    {
      "anonymous": false,
      "inputs": [
        {
          "indexed": false,
          "name": "_id",
          "type": "uint256"
        },
        {
          "indexed": false,
          "name": "_renter",
          "type": "address"
        }
      ],
      "name": "RentCar",
      "type": "event"
    },
    {
      "anonymous": false,
      "inputs": [
        {
          "indexed": false,
          "name": "_id",
          "type": "uint256"
        },
        {
          "indexed": false,
          "name": "_name",
          "type": "string"
        }
      ],
      "name": "NewCar",
      "type": "event"
    },
    {
      "anonymous": false,
      "inputs": [
        {
          "indexed": true,
          "name": "previousOwner",
          "type": "address"
        },
        {
          "indexed": true,
          "name": "newOwner",
          "type": "address"
        }
      ],
      "name": "OwnershipTransferred",
      "type": "event"
    },
    {
      "constant": true,
      "inputs": [
        {
          "name": "_id",
          "type": "uint256"
        }
      ],
      "name": "Is_Rented",
      "outputs": [
        {
          "name": "",
          "type": "bool"
        }
      ],
      "payable": false,
      "stateMutability": "view",
      "type": "function"
    },
    {
      "constant": true,
      "inputs": [],
      "name": "Get_All_Cars",
      "outputs": [
        {
          "name": "",
          "type": "uint16[]"
        },
        {
          "name": "",
          "type": "address[]"
        },
        {
          "name": "",
          "type": "uint16[]"
        },
        {
          "name": "",
          "type": "uint16[]"
        }
      ],
      "payable": false,
      "stateMutability": "view",
      "type": "function"
    }
  ],
  "bytecode": "0x6080604052336000806101000a81548173ffffffffffffffffffffffffffffffffffffffff021916908373ffffffffffffffffffffffffffffffffffffffff1602179055506000809054906101000a900473ffffffffffffffffffffffffffffffffffffffff1673ffffffffffffffffffffffffffffffffffffffff16600073ffffffffffffffffffffffffffffffffffffffff167f8be0079c531659141344cd1fd0a4f28419497f9722a3daafe3b4186f6b6457e060405160405180910390a3610c71806100cf6000396000f3fe608060405260043610610078576000357c0100000000000000000000000000000000000000000000000000000000900463ffffffff1680636c88b7ea1461007d578063715018a6146101c15780638da5cb5b146101d85780638f32d59b1461022f578063d653f60f1461025e578063f2fde38b146102b1575b600080fd5b34801561008957600080fd5b50610092610302565b6040518080602001806020018060200180602001858103855289818151815260200191508051906020019060200280838360005b838110156100e15780820151818401526020810190506100c6565b50505050905001858103845288818151815260200191508051906020019060200280838360005b83811015610123578082015181840152602081019050610108565b50505050905001858103835287818151815260200191508051906020019060200280838360005b8381101561016557808201518184015260208101905061014a565b50505050905001858103825286818151815260200191508051906020019060200280838360005b838110156101a757808201518184015260208101905061018c565b505050509050019850505050505050505060405180910390f35b3480156101cd57600080fd5b506101d661072c565b005b3480156101e457600080fd5b506101ed610867565b604051808273ffffffffffffffffffffffffffffffffffffffff1673ffffffffffffffffffffffffffffffffffffffff16815260200191505060405180910390f35b34801561023b57600080fd5b50610244610890565b604051808215151515815260200191505060405180910390f35b34801561026a57600080fd5b506102976004803603602081101561028157600080fd5b81019080803590602001909291905050506108e7565b604051808215151515815260200191505060405180910390f35b3480156102bd57600080fd5b50610300600480360360208110156102d457600080fd5b81019080803573ffffffffffffffffffffffffffffffffffffffff1690602001909291905050506109a0565b005b606080606080606060038054905060405190808252806020026020018201604052801561033e5781602001602082028038833980820191505090505b50905060606003805490506040519080825280602002602001820160405280156103775781602001602082028038833980820191505090505b50905060606003805490506040519080825280602002602001820160405280156103b05781602001602082028038833980820191505090505b50905060606003805490506040519080825280602002602001820160405280156103e95781602001602082028038833980820191505090505b50905060008090505b60038054905081101561071557610407610bb1565b60038281548110151561041657fe5b90600052602060002090600602016101406040519081016040529081600082018054600181600116156101000203166002900480601f0160208091040260200160405190810160405280929190818152602001828054600181600116156101000203166002900480156104ca5780601f1061049f576101008083540402835291602001916104ca565b820191906000526020600020905b8154815290600101906020018083116104ad57829003601f168201915b505050505081526020016001820160009054906101000a900473ffffffffffffffffffffffffffffffffffffffff1673ffffffffffffffffffffffffffffffffffffffff1673ffffffffffffffffffffffffffffffffffffffff1681526020016002820160009054906101000a900473ffffffffffffffffffffffffffffffffffffffff1673ffffffffffffffffffffffffffffffffffffffff1673ffffffffffffffffffffffffffffffffffffffff16815260200160038201548152602001600482015481526020016005820160009054906101000a900461ffff1661ffff1661ffff1681526020016005820160029054906101000a900461ffff1661ffff1661ffff1681526020016005820160049054906101000a900461ffff1661ffff1661ffff1681526020016005820160069054906101000a900461ffff1661ffff1661ffff1681526020016005820160089054906101000a900461ffff1661ffff1661ffff168152505090508060a00151868381518110151561064857fe5b9060200190602002019061ffff16908161ffff1681525050806101000151858381518110151561067457fe5b9060200190602002019061ffff16908161ffff168152505080610120015184838151811015156106a057fe5b9060200190602002019061ffff16908161ffff1681525050806020015183838151811015156106cb57fe5b9060200190602002019073ffffffffffffffffffffffffffffffffffffffff16908173ffffffffffffffffffffffffffffffffffffffff16815250505080806001019150506103f2565b508381848497509750975097505050505090919293565b610734610890565b15156107a8576040517f08c379a00000000000000000000000000000000000000000000000000000000081526004018080602001828103825260208152602001807f4f776e61626c653a2063616c6c6572206973206e6f7420746865206f776e657281525060200191505060405180910390fd5b600073ffffffffffffffffffffffffffffffffffffffff166000809054906101000a900473ffffffffffffffffffffffffffffffffffffffff1673ffffffffffffffffffffffffffffffffffffffff167f8be0079c531659141344cd1fd0a4f28419497f9722a3daafe3b4186f6b6457e060405160405180910390a360008060006101000a81548173ffffffffffffffffffffffffffffffffffffffff021916908373ffffffffffffffffffffffffffffffffffffffff160217905550565b60008060009054906101000a900473ffffffffffffffffffffffffffffffffffffffff16905090565b60008060009054906101000a900473ffffffffffffffffffffffffffffffffffffffff1673ffffffffffffffffffffffffffffffffffffffff163373ffffffffffffffffffffffffffffffffffffffff1614905090565b60006003828154811015156108f857fe5b906000526020600020906006020160020160009054906101000a900473ffffffffffffffffffffffffffffffffffffffff1673ffffffffffffffffffffffffffffffffffffffff1660038381548110151561094f57fe5b906000526020600020906006020160010160009054906101000a900473ffffffffffffffffffffffffffffffffffffffff1673ffffffffffffffffffffffffffffffffffffffff1614159050919050565b6109a8610890565b1515610a1c576040517f08c379a00000000000000000000000000000000000000000000000000000000081526004018080602001828103825260208152602001807f4f776e61626c653a2063616c6c6572206973206e6f7420746865206f776e657281525060200191505060405180910390fd5b610a2581610a28565b50565b600073ffffffffffffffffffffffffffffffffffffffff168173ffffffffffffffffffffffffffffffffffffffff1614151515610af3576040517f08c379a00000000000000000000000000000000000000000000000000000000081526004018080602001828103825260268152602001807f4f776e61626c653a206e6577206f776e657220697320746865207a65726f206181526020017f646472657373000000000000000000000000000000000000000000000000000081525060400191505060405180910390fd5b8073ffffffffffffffffffffffffffffffffffffffff166000809054906101000a900473ffffffffffffffffffffffffffffffffffffffff1673ffffffffffffffffffffffffffffffffffffffff167f8be0079c531659141344cd1fd0a4f28419497f9722a3daafe3b4186f6b6457e060405160405180910390a3806000806101000a81548173ffffffffffffffffffffffffffffffffffffffff021916908373ffffffffffffffffffffffffffffffffffffffff16021790555050565b6101406040519081016040528060608152602001600073ffffffffffffffffffffffffffffffffffffffff168152602001600073ffffffffffffffffffffffffffffffffffffffff1681526020016000815260200160008152602001600061ffff168152602001600061ffff168152602001600061ffff168152602001600061ffff168152602001600061ffff168152509056fea165627a7a72305820f5dd375004bd1fd92b3a6d612203d86d592248869d4987072df8eca2dffd0e030029",
  "source": "pragma solidity ^0.5.0;\nimport \"./ownable.sol\";\nimport \"./SafeMath.sol\";\n\ncontract CarBase is Ownable{\n\n    using SafeMath for uint256;\n    using SafeMath16 for uint16;\n\n    event RentCar(uint _id, address _renter);\n    event NewCar(uint _id, string _name);\n\n    mapping (uint => address) car2owner;\n    mapping (address => uint) ownerTokenCount;\n    \n    struct Car {\n        string name;\n        address payable owner;\n        address payable renter;\n        uint rent_time; // now + expected renting time\n        uint id;\n        uint16 age;\n        uint16 price;\n        uint16 crash_number;\n        uint16 rate_sum;\n        uint16 rate_num;\n    }\n\n    Car[] cars;\n\n    function Add_Car(string memory _name, uint16 _age, address payable _owner) internal { // call by car wallet\n        \n        Car memory newcar = Car(_name, _owner, _owner, now, 0, _age, 10, 0, 0, 0);\n        uint id = cars.push(newcar) - 1;\n        cars[id].id = id;\n        car2owner[id] = _owner;\n        ownerTokenCount[_owner]++;\n        emit NewCar(id, _name);\n\n        /*Car memory newcar = Car(_name, now, 0, _age, 10, 0, false);\n        VToken memory vtoken = VToken(newcar, msg.sender, msg.sender);\n        uint16 id = uint16(vtokens.push(vtoken) - 1);// add to array and update id value\n        vtokens[id].car.id = id;\n        car2owner[id] = msg.sender;\n        emit NewVtoken(id, _name);*/\n    }\n\n    function Is_Rented(uint _id) public view returns (bool){\n        //return cars[_id].is_rented;\n        /*return vtokens[_id].car.is_rented;*/\n        return (cars[_id].owner != cars[_id].renter);\n    }\n\n    /*function Get_All_Cars() external view returns (Car[] memory cars2) {\n        cars2 = cars;\n        return cars;\n    }*/\n    function Get_All_Cars() external view returns(uint16[] memory, address[] memory, uint16[] memory, uint16[] memory){\n        uint16[] memory ages = new uint16[](cars.length);\n        uint16[] memory rates_sum = new uint16[](cars.length);\n        uint16[] memory rates_num = new uint16[](cars.length);\n        address[] memory owners = new address[](cars.length);\n\n        for (uint i = 0; i < cars.length; i++){\n            Car memory temp = cars[i];\n            ages[i] = temp.age;\n            rates_sum[i] = temp.rate_sum;\n            rates_num[i] = temp.rate_num;\n            owners[i] = temp.owner;\n\n        }\n        return (ages, owners, rates_sum, rates_num);\n    }\n/*\n    function Rent_Car(uint _id) public payable {\n        require(Is_Rented(_id) == false && msg.value == 1 ether);\n\n        ownerTokenCount[cars[_id].owner]--;\n\n        cars[_id].renter = msg.sender;\n        cars[_id].rent_time = now + basic_renttime * 60;\n        cars[_id].is_rented = true;\n        cars[_id].owner.transfer(1 ether); //for bail\n\n        emit RentCar(_id, msg.sender);\n\n        require(Is_Rented(_id) == false && msg.value >= 1 ether);\n\n        vtokens[_id].renter = msg.sender;\n        vtokens[_id].car.rent_time = now + basic_renttime * 60;\n        vtokens[_id].car.is_rented = true;\n\n        vtokens[_id].owner.transfer(1 ether); // for bail\n\n        emit RentCar(_id, msg.sender);\n    }\n\n    function Return_Car(uint _id, uint _oil) public payable {\n        require(Is_Rented(_id) && msg.sender == vtokens[_id].renter);\n        uint toOwner;\n        uint toRenter;\n\n        if (vtokens[_id].car.rent_time >= now) {\n            toOwner = vtokens[_id].car.price + _oil * 50;\n            toRenter = 1;\n            vtokens[_id].owner.transfer(toOwner * 1 szabo);\n            vtokens[_id].renter.transfer(toRenter * 1 ether);\n        }\n        else {\n            toOwner = vtokens[_id].car.price + _oil * 50;\n            toRenter = 0; //penalty for delay\n            vtokens[_id].owner.transfer(toOwner * 1 szabo);\n        }\n\n        vtokens[_id].car.is_rented = false;\n        vtokens[_id].renter = vtokens[_id].owner;\n\n    }\n    */\n\n}",
  "sourcePath": "/home/stevenchen/桌面/Automotive-contract/contracts/CarBase.sol",
  "compiler": {
    "name": "solc",
    "version": "0.5.0+commit.1d4f565a.Emscripten.clang"
  },
  "schemaVersion": "3.0.9",
  "updatedAt": "2019-05-25T13:46:45.063Z",
  "devdoc": {
    "methods": {
      "isOwner()": {
        "return": "true if `msg.sender` is the owner of the contract."
      },
      "owner()": {
        "return": "the address of the owner."
      },
      "renounceOwnership()": {
        "details": "Allows the current owner to relinquish control of the contract. It will not be possible to call the functions with the `onlyOwner` modifier anymore."
      },
      "transferOwnership(address)": {
        "details": "Allows the current owner to transfer control of the contract to a newOwner.",
        "params": {
          "newOwner": "The address to transfer ownership to."
        }
      }
    }
  },
  "userdoc": {
    "methods": {
      "renounceOwnership()": {
        "notice": "Renouncing ownership will leave the contract without an owner, thereby removing any functionality that is only available to the owner."
      }
    }
  }
}