{
  "contractName": "CarBase",
  "abi": [
    {
      "constant": false,
      "inputs": [],
      "name": "renounceOwnership",
      "outputs": [],
      "payable": false,
      "stateMutability": "nonpayable",
      "type": "function"
    },
    {
      "constant": true,
      "inputs": [],
      "name": "owner",
      "outputs": [
        {
          "name": "",
          "type": "address"
        }
      ],
      "payable": false,
      "stateMutability": "view",
      "type": "function"
    },
    {
      "constant": true,
      "inputs": [],
      "name": "isOwner",
      "outputs": [
        {
          "name": "",
          "type": "bool"
        }
      ],
      "payable": false,
      "stateMutability": "view",
      "type": "function"
    },
    {
      "constant": false,
      "inputs": [
        {
          "name": "newOwner",
          "type": "address"
        }
      ],
      "name": "transferOwnership",
      "outputs": [],
      "payable": false,
      "stateMutability": "nonpayable",
      "type": "function"
    },
    {
      "anonymous": false,
      "inputs": [
        {
          "indexed": false,
          "name": "_id",
          "type": "uint256"
        },
        {
          "indexed": false,
          "name": "_renter",
          "type": "address"
        }
      ],
      "name": "RentCar",
      "type": "event"
    },
    {
      "anonymous": false,
      "inputs": [
        {
          "indexed": false,
          "name": "_id",
          "type": "uint256"
        },
        {
          "indexed": false,
          "name": "_name",
          "type": "string"
        }
      ],
      "name": "NewCar",
      "type": "event"
    },
    {
      "anonymous": false,
      "inputs": [
        {
          "indexed": true,
          "name": "previousOwner",
          "type": "address"
        },
        {
          "indexed": true,
          "name": "newOwner",
          "type": "address"
        }
      ],
      "name": "OwnershipTransferred",
      "type": "event"
    },
    {
      "constant": false,
      "inputs": [
        {
          "name": "_name",
          "type": "string"
        },
        {
          "name": "_age",
          "type": "uint16"
        },
        {
          "name": "_owner",
          "type": "address"
        }
      ],
      "name": "Add_Car",
      "outputs": [],
      "payable": false,
      "stateMutability": "nonpayable",
      "type": "function"
    },
    {
      "constant": true,
      "inputs": [
        {
          "name": "_id",
          "type": "uint256"
        }
      ],
      "name": "Is_Rented",
      "outputs": [
        {
          "name": "",
          "type": "bool"
        }
      ],
      "payable": false,
      "stateMutability": "view",
      "type": "function"
    }
  ],
  "bytecode": "0x6080604052336000806101000a81548173ffffffffffffffffffffffffffffffffffffffff021916908373ffffffffffffffffffffffffffffffffffffffff1602179055506000809054906101000a900473ffffffffffffffffffffffffffffffffffffffff1673ffffffffffffffffffffffffffffffffffffffff16600073ffffffffffffffffffffffffffffffffffffffff167f8be0079c531659141344cd1fd0a4f28419497f9722a3daafe3b4186f6b6457e060405160405180910390a3610bd7806100cf6000396000f3fe608060405260043610610078576000357c0100000000000000000000000000000000000000000000000000000000900463ffffffff168063202458631461007d578063715018a6146101735780638da5cb5b1461018a5780638f32d59b146101e1578063d653f60f14610210578063f2fde38b14610263575b600080fd5b34801561008957600080fd5b50610171600480360360608110156100a057600080fd5b81019080803590602001906401000000008111156100bd57600080fd5b8201836020820111156100cf57600080fd5b803590602001918460018302840111640100000000831117156100f157600080fd5b91908080601f016020809104026020016040519081016040528093929190818152602001838380828437600081840152601f19601f820116905080830192505050505050509192919290803561ffff169060200190929190803573ffffffffffffffffffffffffffffffffffffffff1690602001909291905050506102b4565b005b34801561017f57600080fd5b50610188610604565b005b34801561019657600080fd5b5061019f61073f565b604051808273ffffffffffffffffffffffffffffffffffffffff1673ffffffffffffffffffffffffffffffffffffffff16815260200191505060405180910390f35b3480156101ed57600080fd5b506101f6610768565b604051808215151515815260200191505060405180910390f35b34801561021c57600080fd5b506102496004803603602081101561023357600080fd5b81019080803590602001909291905050506107bf565b604051808215151515815260200191505060405180910390f35b34801561026f57600080fd5b506102b26004803603602081101561028657600080fd5b81019080803573ffffffffffffffffffffffffffffffffffffffff169060200190929190505050610877565b005b6102bc610a88565b610100604051908101604052808581526020018373ffffffffffffffffffffffffffffffffffffffff1681526020018373ffffffffffffffffffffffffffffffffffffffff168152602001428152602001600081526020018461ffff168152602001600a61ffff168152602001600061ffff16815250905060006001600383908060018154018082558091505090600182039060005260206000209060060201600090919290919091506000820151816000019080519060200190610382929190610b06565b5060208201518160010160006101000a81548173ffffffffffffffffffffffffffffffffffffffff021916908373ffffffffffffffffffffffffffffffffffffffff16021790555060408201518160020160006101000a81548173ffffffffffffffffffffffffffffffffffffffff021916908373ffffffffffffffffffffffffffffffffffffffff160217905550606082015181600301556080820151816004015560a08201518160050160006101000a81548161ffff021916908361ffff16021790555060c08201518160050160026101000a81548161ffff021916908361ffff16021790555060e08201518160050160046101000a81548161ffff021916908361ffff1602179055505050039050806003828154811015156104a357fe5b906000526020600020906006020160040181905550336001600083815260200190815260200160002060006101000a81548173ffffffffffffffffffffffffffffffffffffffff021916908373ffffffffffffffffffffffffffffffffffffffff160217905550600260003373ffffffffffffffffffffffffffffffffffffffff1673ffffffffffffffffffffffffffffffffffffffff168152602001908152602001600020600081548092919060010191905055507fa9d268463d5f834fc19c6b87f103aef5d71f63e24312ab916432533c18ad064481866040518083815260200180602001828103825283818151815260200191508051906020019080838360005b838110156105c25780820151818401526020810190506105a7565b50505050905090810190601f1680156105ef5780820380516001836020036101000a031916815260200191505b50935050505060405180910390a15050505050565b61060c610768565b1515610680576040517f08c379a00000000000000000000000000000000000000000000000000000000081526004018080602001828103825260208152602001807f4f776e61626c653a2063616c6c6572206973206e6f7420746865206f776e657281525060200191505060405180910390fd5b600073ffffffffffffffffffffffffffffffffffffffff166000809054906101000a900473ffffffffffffffffffffffffffffffffffffffff1673ffffffffffffffffffffffffffffffffffffffff167f8be0079c531659141344cd1fd0a4f28419497f9722a3daafe3b4186f6b6457e060405160405180910390a360008060006101000a81548173ffffffffffffffffffffffffffffffffffffffff021916908373ffffffffffffffffffffffffffffffffffffffff160217905550565b60008060009054906101000a900473ffffffffffffffffffffffffffffffffffffffff16905090565b60008060009054906101000a900473ffffffffffffffffffffffffffffffffffffffff1673ffffffffffffffffffffffffffffffffffffffff163373ffffffffffffffffffffffffffffffffffffffff1614905090565b60006003828154811015156107d057fe5b906000526020600020906006020160020160009054906101000a900473ffffffffffffffffffffffffffffffffffffffff1673ffffffffffffffffffffffffffffffffffffffff1660038381548110151561082757fe5b906000526020600020906006020160010160009054906101000a900473ffffffffffffffffffffffffffffffffffffffff1673ffffffffffffffffffffffffffffffffffffffff16149050919050565b61087f610768565b15156108f3576040517f08c379a00000000000000000000000000000000000000000000000000000000081526004018080602001828103825260208152602001807f4f776e61626c653a2063616c6c6572206973206e6f7420746865206f776e657281525060200191505060405180910390fd5b6108fc816108ff565b50565b600073ffffffffffffffffffffffffffffffffffffffff168173ffffffffffffffffffffffffffffffffffffffff16141515156109ca576040517f08c379a00000000000000000000000000000000000000000000000000000000081526004018080602001828103825260268152602001807f4f776e61626c653a206e6577206f776e657220697320746865207a65726f206181526020017f646472657373000000000000000000000000000000000000000000000000000081525060400191505060405180910390fd5b8073ffffffffffffffffffffffffffffffffffffffff166000809054906101000a900473ffffffffffffffffffffffffffffffffffffffff1673ffffffffffffffffffffffffffffffffffffffff167f8be0079c531659141344cd1fd0a4f28419497f9722a3daafe3b4186f6b6457e060405160405180910390a3806000806101000a81548173ffffffffffffffffffffffffffffffffffffffff021916908373ffffffffffffffffffffffffffffffffffffffff16021790555050565b6101006040519081016040528060608152602001600073ffffffffffffffffffffffffffffffffffffffff168152602001600073ffffffffffffffffffffffffffffffffffffffff1681526020016000815260200160008152602001600061ffff168152602001600061ffff168152602001600061ffff1681525090565b828054600181600116156101000203166002900490600052602060002090601f016020900481019282601f10610b4757805160ff1916838001178555610b75565b82800160010185558215610b75579182015b82811115610b74578251825591602001919060010190610b59565b5b509050610b829190610b86565b5090565b610ba891905b80821115610ba4576000816000905550600101610b8c565b5090565b9056fea165627a7a72305820af03b81a59585ba685f1ff3d64396334591df800da542b02acaa9e619666ab770029",
  "source": "pragma solidity ^0.5.0;\nimport \"./ownable.sol\";\nimport \"./SafeMath.sol\";\n\ncontract CarBase is Ownable{\n\n    using SafeMath for uint256;\n    using SafeMath16 for uint16;\n\n    event RentCar(uint _id, address _renter);\n    event NewCar(uint _id, string _name);\n\n    mapping (uint => address) car2owner;\n    mapping (address => uint) ownerTokenCount;\n    \n    struct Car {\n        string name;\n        address payable owner;\n        address payable renter;\n        uint rent_time; // now + expected renting time\n        uint id;\n        uint16 age;\n        uint16 price;\n        uint16 crash_number;\n    }\n\n    Car[] cars;\n\n    function Add_Car(string memory _name, uint16 _age, address payable _owner) public { // call by car wallet\n        Car memory newcar = Car(_name, _owner, _owner, now, 0, _age, 10, 0);\n        uint id = cars.push(newcar) - 1;\n        cars[id].id = id;\n        car2owner[id] = msg.sender;\n        ownerTokenCount[msg.sender]++;\n        emit NewCar(id, _name);\n\n        /*Car memory newcar = Car(_name, now, 0, _age, 10, 0, false);\n        VToken memory vtoken = VToken(newcar, msg.sender, msg.sender);\n        uint16 id = uint16(vtokens.push(vtoken) - 1);// add to array and update id value\n        vtokens[id].car.id = id;\n        car2owner[id] = msg.sender;\n        emit NewVtoken(id, _name);*/\n    }\n\n    function Is_Rented(uint _id) public view returns (bool){\n        //return cars[_id].is_rented;\n        /*return vtokens[_id].car.is_rented;*/\n        return cars[_id].owner == cars[_id].renter;\n    }\n/*\n    function Rent_Car(uint _id) public payable {\n        require(Is_Rented(_id) == false && msg.value == 1 ether);\n\n        ownerTokenCount[cars[_id].owner]--;\n\n        cars[_id].renter = msg.sender;\n        cars[_id].rent_time = now + basic_renttime * 60;\n        cars[_id].is_rented = true;\n        cars[_id].owner.transfer(1 ether); //for bail\n\n        emit RentCar(_id, msg.sender);\n\n        require(Is_Rented(_id) == false && msg.value >= 1 ether);\n\n        vtokens[_id].renter = msg.sender;\n        vtokens[_id].car.rent_time = now + basic_renttime * 60;\n        vtokens[_id].car.is_rented = true;\n\n        vtokens[_id].owner.transfer(1 ether); // for bail\n\n        emit RentCar(_id, msg.sender);\n    }\n\n    function Return_Car(uint _id, uint _oil) public payable {\n        require(Is_Rented(_id) && msg.sender == vtokens[_id].renter);\n        uint toOwner;\n        uint toRenter;\n\n        if (vtokens[_id].car.rent_time >= now) {\n            toOwner = vtokens[_id].car.price + _oil * 50;\n            toRenter = 1;\n            vtokens[_id].owner.transfer(toOwner * 1 szabo);\n            vtokens[_id].renter.transfer(toRenter * 1 ether);\n        }\n        else {\n            toOwner = vtokens[_id].car.price + _oil * 50;\n            toRenter = 0; //penalty for delay\n            vtokens[_id].owner.transfer(toOwner * 1 szabo);\n        }\n\n        vtokens[_id].car.is_rented = false;\n        vtokens[_id].renter = vtokens[_id].owner;\n\n    }\n    */\n\n}",
  "sourcePath": "/home/stevenchen/桌面/Automotive-contract/contracts/CarBase.sol",
  "compiler": {
    "name": "solc",
    "version": "0.5.0+commit.1d4f565a.Emscripten.clang"
  },
  "schemaVersion": "3.0.9",
  "updatedAt": "2019-05-24T09:52:29.041Z",
  "devdoc": {
    "methods": {
      "isOwner()": {
        "return": "true if `msg.sender` is the owner of the contract."
      },
      "owner()": {
        "return": "the address of the owner."
      },
      "renounceOwnership()": {
        "details": "Allows the current owner to relinquish control of the contract. It will not be possible to call the functions with the `onlyOwner` modifier anymore."
      },
      "transferOwnership(address)": {
        "details": "Allows the current owner to transfer control of the contract to a newOwner.",
        "params": {
          "newOwner": "The address to transfer ownership to."
        }
      }
    }
  },
  "userdoc": {
    "methods": {
      "renounceOwnership()": {
        "notice": "Renouncing ownership will leave the contract without an owner, thereby removing any functionality that is only available to the owner."
      }
    }
  }
}