{
  "contractName": "CarHelper",
  "abi": [
    {
      "constant": true,
      "inputs": [],
      "name": "Get_All_Cars",
      "outputs": [
        {
          "name": "",
          "type": "uint16[]"
        },
        {
          "name": "",
          "type": "address[]"
        },
        {
          "name": "",
          "type": "uint16[]"
        },
        {
          "name": "",
          "type": "uint16[]"
        }
      ],
      "payable": false,
      "stateMutability": "view",
      "type": "function"
    },
    {
      "constant": false,
      "inputs": [],
      "name": "renounceOwnership",
      "outputs": [],
      "payable": false,
      "stateMutability": "nonpayable",
      "type": "function"
    },
    {
      "constant": true,
      "inputs": [],
      "name": "owner",
      "outputs": [
        {
          "name": "",
          "type": "address"
        }
      ],
      "payable": false,
      "stateMutability": "view",
      "type": "function"
    },
    {
      "constant": true,
      "inputs": [],
      "name": "isOwner",
      "outputs": [
        {
          "name": "",
          "type": "bool"
        }
      ],
      "payable": false,
      "stateMutability": "view",
      "type": "function"
    },
    {
      "constant": true,
      "inputs": [
        {
          "name": "_id",
          "type": "uint256"
        }
      ],
      "name": "Is_Rented",
      "outputs": [
        {
          "name": "",
          "type": "bool"
        }
      ],
      "payable": false,
      "stateMutability": "view",
      "type": "function"
    },
    {
      "constant": false,
      "inputs": [
        {
          "name": "newOwner",
          "type": "address"
        }
      ],
      "name": "transferOwnership",
      "outputs": [],
      "payable": false,
      "stateMutability": "nonpayable",
      "type": "function"
    },
    {
      "anonymous": false,
      "inputs": [
        {
          "indexed": false,
          "name": "_id",
          "type": "uint256"
        },
        {
          "indexed": false,
          "name": "_renter",
          "type": "address"
        }
      ],
      "name": "RentCar",
      "type": "event"
    },
    {
      "anonymous": false,
      "inputs": [
        {
          "indexed": false,
          "name": "_id",
          "type": "uint256"
        },
        {
          "indexed": false,
          "name": "_name",
          "type": "string"
        }
      ],
      "name": "NewCar",
      "type": "event"
    },
    {
      "anonymous": false,
      "inputs": [
        {
          "indexed": true,
          "name": "previousOwner",
          "type": "address"
        },
        {
          "indexed": true,
          "name": "newOwner",
          "type": "address"
        }
      ],
      "name": "OwnershipTransferred",
      "type": "event"
    },
    {
      "constant": false,
      "inputs": [
        {
          "name": "_id",
          "type": "uint256"
        },
        {
          "name": "_newname",
          "type": "string"
        }
      ],
      "name": "ChangeName",
      "outputs": [],
      "payable": false,
      "stateMutability": "nonpayable",
      "type": "function"
    },
    {
      "constant": false,
      "inputs": [
        {
          "name": "_id",
          "type": "uint256"
        },
        {
          "name": "_newage",
          "type": "uint16"
        }
      ],
      "name": "ChangeAge",
      "outputs": [],
      "payable": false,
      "stateMutability": "nonpayable",
      "type": "function"
    }
  ],
  "bytecode": "0x6080604052336000806101000a81548173ffffffffffffffffffffffffffffffffffffffff021916908373ffffffffffffffffffffffffffffffffffffffff1602179055506000809054906101000a900473ffffffffffffffffffffffffffffffffffffffff1673ffffffffffffffffffffffffffffffffffffffff16600073ffffffffffffffffffffffffffffffffffffffff167f8be0079c531659141344cd1fd0a4f28419497f9722a3daafe3b4186f6b6457e060405160405180910390a3611089806100cf6000396000f3fe60806040526004361061008e576000357c0100000000000000000000000000000000000000000000000000000000900463ffffffff168063355e6037146100935780636c88b7ea14610165578063715018a6146102a95780638da5cb5b146102c05780638f32d59b14610317578063d653f60f14610346578063e07ec44a14610399578063f2fde38b146103e2575b600080fd5b34801561009f57600080fd5b50610163600480360360408110156100b657600080fd5b8101908080359060200190929190803590602001906401000000008111156100dd57600080fd5b8201836020820111156100ef57600080fd5b8035906020019184600183028401116401000000008311171561011157600080fd5b91908080601f016020809104026020016040519081016040528093929190818152602001838380828437600081840152601f19601f820116905080830192505050505050509192919290505050610433565b005b34801561017157600080fd5b5061017a610551565b6040518080602001806020018060200180602001858103855289818151815260200191508051906020019060200280838360005b838110156101c95780820151818401526020810190506101ae565b50505050905001858103845288818151815260200191508051906020019060200280838360005b8381101561020b5780820151818401526020810190506101f0565b50505050905001858103835287818151815260200191508051906020019060200280838360005b8381101561024d578082015181840152602081019050610232565b50505050905001858103825286818151815260200191508051906020019060200280838360005b8381101561028f578082015181840152602081019050610274565b505050509050019850505050505050505060405180910390f35b3480156102b557600080fd5b506102be61097b565b005b3480156102cc57600080fd5b506102d5610ab6565b604051808273ffffffffffffffffffffffffffffffffffffffff1673ffffffffffffffffffffffffffffffffffffffff16815260200191505060405180910390f35b34801561032357600080fd5b5061032c610adf565b604051808215151515815260200191505060405180910390f35b34801561035257600080fd5b5061037f6004803603602081101561036957600080fd5b8101908080359060200190929190505050610b36565b604051808215151515815260200191505060405180910390f35b3480156103a557600080fd5b506103e0600480360360408110156103bc57600080fd5b8101908080359060200190929190803561ffff169060200190929190505050610bef565b005b3480156103ee57600080fd5b506104316004803603602081101561040557600080fd5b81019080803573ffffffffffffffffffffffffffffffffffffffff169060200190929190505050610d13565b005b813373ffffffffffffffffffffffffffffffffffffffff1660038281548110151561045a57fe5b906000526020600020906006020160010160009054906101000a900473ffffffffffffffffffffffffffffffffffffffff1673ffffffffffffffffffffffffffffffffffffffff16141515610517576040517f08c379a000000000000000000000000000000000000000000000000000000000815260040180806020018281038252600e8152602001807f4e6f7420746865206f776e65722100000000000000000000000000000000000081525060200191505060405180910390fd5b8160038481548110151561052757fe5b9060005260206000209060060201600001908051906020019061054b929190610f24565b50505050565b606080606080606060038054905060405190808252806020026020018201604052801561058d5781602001602082028038833980820191505090505b50905060606003805490506040519080825280602002602001820160405280156105c65781602001602082028038833980820191505090505b50905060606003805490506040519080825280602002602001820160405280156105ff5781602001602082028038833980820191505090505b50905060606003805490506040519080825280602002602001820160405280156106385781602001602082028038833980820191505090505b50905060008090505b60038054905081101561096457610656610fa4565b60038281548110151561066557fe5b90600052602060002090600602016101406040519081016040529081600082018054600181600116156101000203166002900480601f0160208091040260200160405190810160405280929190818152602001828054600181600116156101000203166002900480156107195780601f106106ee57610100808354040283529160200191610719565b820191906000526020600020905b8154815290600101906020018083116106fc57829003601f168201915b505050505081526020016001820160009054906101000a900473ffffffffffffffffffffffffffffffffffffffff1673ffffffffffffffffffffffffffffffffffffffff1673ffffffffffffffffffffffffffffffffffffffff1681526020016002820160009054906101000a900473ffffffffffffffffffffffffffffffffffffffff1673ffffffffffffffffffffffffffffffffffffffff1673ffffffffffffffffffffffffffffffffffffffff16815260200160038201548152602001600482015481526020016005820160009054906101000a900461ffff1661ffff1661ffff1681526020016005820160029054906101000a900461ffff1661ffff1661ffff1681526020016005820160049054906101000a900461ffff1661ffff1661ffff1681526020016005820160069054906101000a900461ffff1661ffff1661ffff1681526020016005820160089054906101000a900461ffff1661ffff1661ffff168152505090508060a00151868381518110151561089757fe5b9060200190602002019061ffff16908161ffff168152505080610100015185838151811015156108c357fe5b9060200190602002019061ffff16908161ffff168152505080610120015184838151811015156108ef57fe5b9060200190602002019061ffff16908161ffff16815250508060200151838381518110151561091a57fe5b9060200190602002019073ffffffffffffffffffffffffffffffffffffffff16908173ffffffffffffffffffffffffffffffffffffffff1681525050508080600101915050610641565b508381848497509750975097505050505090919293565b610983610adf565b15156109f7576040517f08c379a00000000000000000000000000000000000000000000000000000000081526004018080602001828103825260208152602001807f4f776e61626c653a2063616c6c6572206973206e6f7420746865206f776e657281525060200191505060405180910390fd5b600073ffffffffffffffffffffffffffffffffffffffff166000809054906101000a900473ffffffffffffffffffffffffffffffffffffffff1673ffffffffffffffffffffffffffffffffffffffff167f8be0079c531659141344cd1fd0a4f28419497f9722a3daafe3b4186f6b6457e060405160405180910390a360008060006101000a81548173ffffffffffffffffffffffffffffffffffffffff021916908373ffffffffffffffffffffffffffffffffffffffff160217905550565b60008060009054906101000a900473ffffffffffffffffffffffffffffffffffffffff16905090565b60008060009054906101000a900473ffffffffffffffffffffffffffffffffffffffff1673ffffffffffffffffffffffffffffffffffffffff163373ffffffffffffffffffffffffffffffffffffffff1614905090565b6000600382815481101515610b4757fe5b906000526020600020906006020160020160009054906101000a900473ffffffffffffffffffffffffffffffffffffffff1673ffffffffffffffffffffffffffffffffffffffff16600383815481101515610b9e57fe5b906000526020600020906006020160010160009054906101000a900473ffffffffffffffffffffffffffffffffffffffff1673ffffffffffffffffffffffffffffffffffffffff1614159050919050565b813373ffffffffffffffffffffffffffffffffffffffff16600382815481101515610c1657fe5b906000526020600020906006020160010160009054906101000a900473ffffffffffffffffffffffffffffffffffffffff1673ffffffffffffffffffffffffffffffffffffffff16141515610cd3576040517f08c379a000000000000000000000000000000000000000000000000000000000815260040180806020018281038252600e8152602001807f4e6f7420746865206f776e65722100000000000000000000000000000000000081525060200191505060405180910390fd5b81600384815481101515610ce357fe5b906000526020600020906006020160050160006101000a81548161ffff021916908361ffff160217905550505050565b610d1b610adf565b1515610d8f576040517f08c379a00000000000000000000000000000000000000000000000000000000081526004018080602001828103825260208152602001807f4f776e61626c653a2063616c6c6572206973206e6f7420746865206f776e657281525060200191505060405180910390fd5b610d9881610d9b565b50565b600073ffffffffffffffffffffffffffffffffffffffff168173ffffffffffffffffffffffffffffffffffffffff1614151515610e66576040517f08c379a00000000000000000000000000000000000000000000000000000000081526004018080602001828103825260268152602001807f4f776e61626c653a206e6577206f776e657220697320746865207a65726f206181526020017f646472657373000000000000000000000000000000000000000000000000000081525060400191505060405180910390fd5b8073ffffffffffffffffffffffffffffffffffffffff166000809054906101000a900473ffffffffffffffffffffffffffffffffffffffff1673ffffffffffffffffffffffffffffffffffffffff167f8be0079c531659141344cd1fd0a4f28419497f9722a3daafe3b4186f6b6457e060405160405180910390a3806000806101000a81548173ffffffffffffffffffffffffffffffffffffffff021916908373ffffffffffffffffffffffffffffffffffffffff16021790555050565b828054600181600116156101000203166002900490600052602060002090601f016020900481019282601f10610f6557805160ff1916838001178555610f93565b82800160010185558215610f93579182015b82811115610f92578251825591602001919060010190610f77565b5b509050610fa09190611038565b5090565b6101406040519081016040528060608152602001600073ffffffffffffffffffffffffffffffffffffffff168152602001600073ffffffffffffffffffffffffffffffffffffffff1681526020016000815260200160008152602001600061ffff168152602001600061ffff168152602001600061ffff168152602001600061ffff168152602001600061ffff1681525090565b61105a91905b8082111561105657600081600090555060010161103e565b5090565b9056fea165627a7a7230582035ca9006fbeae30c56effbfc6d7e25701032a5b163c26fdec6f075c32cadc8e00029",
  "source": "pragma solidity ^0.5.0;\nimport \"./CarBase.sol\";\nimport \"./erc721.sol\";\n\ncontract CarHelper is CarBase {\n    modifier OnlyOwnerOf(uint _id) {\n        require(cars[_id].owner == msg.sender, \"Not the owner!\");\n        _;\n    }\n    \n    function ChangeName(uint _id, string memory _newname) public OnlyOwnerOf(_id) {\n        cars[_id].name = _newname;\n    }\n\n    function ChangeAge(uint _id, uint16 _newage) public OnlyOwnerOf(_id) {\n        cars[_id].age = _newage;\n    }\n}\n\ncontract CarOwnership is CarBase, ERC721 {\n    string public constant name = \"Vtoken\";\n    string public constant symbol = \"V\";\n\n    function balanceOf(address _owner) public view returns (uint256 _balance) {\n        return ownerTokenCount[_owner];\n    }\n\n    function ownerOf(uint _tokenId) public view returns (address _owner) {\n        return cars[_tokenId].owner;\n    }\n\n    function approve(address _to, uint _tokenId) public { // approval is used for renting car\n        address payable addr = address(uint160(_to)); //turn _to from address to address payable\n        cars[_tokenId].renter = addr;\n\n        emit Approval(cars[_tokenId].owner, _to, _tokenId);\n    }\n\n    function getApproved(uint _tokenId) public view returns(address _operator) {\n        address addr = cars[_tokenId].renter;\n        return addr;\n    }\n\n    function transferFrom(address _from, address _to, uint _tokenId) public {\n        require(msg.sender == _from && _from == cars[_tokenId].owner, \"Failed to tranfer!\");\n\n        address payable addr_to = address(uint160(_to));\n        /*address payable addr_from = address(uint160(_from));*/\n        car2owner[_tokenId] = addr_to;\n        ownerTokenCount[_from].sub(1);\n        ownerTokenCount[_to].add(1);\n        cars[_tokenId].owner = addr_to;\n        emit Transfer(_from, _to, _tokenId);\n    }\n}",
  "sourcePath": "/home/stevenchen/桌面/Automotive-contract/contracts/CarHelper.sol",
  "compiler": {
    "name": "solc",
    "version": "0.5.0+commit.1d4f565a.Emscripten.clang"
  },
  "schemaVersion": "3.0.9",
  "updatedAt": "2019-05-25T13:46:44.165Z",
  "devdoc": {
    "methods": {
      "isOwner()": {
        "return": "true if `msg.sender` is the owner of the contract."
      },
      "owner()": {
        "return": "the address of the owner."
      },
      "renounceOwnership()": {
        "details": "Allows the current owner to relinquish control of the contract. It will not be possible to call the functions with the `onlyOwner` modifier anymore."
      },
      "transferOwnership(address)": {
        "details": "Allows the current owner to transfer control of the contract to a newOwner.",
        "params": {
          "newOwner": "The address to transfer ownership to."
        }
      }
    }
  },
  "userdoc": {
    "methods": {
      "renounceOwnership()": {
        "notice": "Renouncing ownership will leave the contract without an owner, thereby removing any functionality that is only available to the owner."
      }
    }
  }
}