{
  "contractName": "CarHelper",
  "abi": [
    {
      "constant": false,
      "inputs": [
        {
          "name": "_id",
          "type": "uint16"
        }
      ],
      "name": "Rent_Car",
      "outputs": [],
      "payable": true,
      "stateMutability": "payable",
      "type": "function"
    },
    {
      "constant": true,
      "inputs": [
        {
          "name": "_id",
          "type": "uint16"
        }
      ],
      "name": "Is_Rented",
      "outputs": [
        {
          "name": "",
          "type": "bool"
        }
      ],
      "payable": false,
      "stateMutability": "view",
      "type": "function"
    },
    {
      "constant": false,
      "inputs": [
        {
          "name": "_name",
          "type": "string"
        },
        {
          "name": "_age",
          "type": "uint16"
        }
      ],
      "name": "Create_Vtoken",
      "outputs": [],
      "payable": false,
      "stateMutability": "nonpayable",
      "type": "function"
    },
    {
      "constant": false,
      "inputs": [],
      "name": "renounceOwnership",
      "outputs": [],
      "payable": false,
      "stateMutability": "nonpayable",
      "type": "function"
    },
    {
      "constant": true,
      "inputs": [],
      "name": "owner",
      "outputs": [
        {
          "name": "",
          "type": "address"
        }
      ],
      "payable": false,
      "stateMutability": "view",
      "type": "function"
    },
    {
      "constant": true,
      "inputs": [],
      "name": "isOwner",
      "outputs": [
        {
          "name": "",
          "type": "bool"
        }
      ],
      "payable": false,
      "stateMutability": "view",
      "type": "function"
    },
    {
      "constant": false,
      "inputs": [
        {
          "name": "_id",
          "type": "uint16"
        },
        {
          "name": "_oil",
          "type": "uint256"
        }
      ],
      "name": "Return_Car",
      "outputs": [],
      "payable": true,
      "stateMutability": "payable",
      "type": "function"
    },
    {
      "constant": false,
      "inputs": [
        {
          "name": "newOwner",
          "type": "address"
        }
      ],
      "name": "transferOwnership",
      "outputs": [],
      "payable": false,
      "stateMutability": "nonpayable",
      "type": "function"
    },
    {
      "anonymous": false,
      "inputs": [
        {
          "indexed": false,
          "name": "_id",
          "type": "uint16"
        },
        {
          "indexed": false,
          "name": "_renter",
          "type": "address"
        }
      ],
      "name": "RentCar",
      "type": "event"
    },
    {
      "anonymous": false,
      "inputs": [
        {
          "indexed": false,
          "name": "_id",
          "type": "uint16"
        },
        {
          "indexed": false,
          "name": "_name",
          "type": "string"
        }
      ],
      "name": "NewVtoken",
      "type": "event"
    },
    {
      "anonymous": false,
      "inputs": [
        {
          "indexed": true,
          "name": "previousOwner",
          "type": "address"
        },
        {
          "indexed": true,
          "name": "newOwner",
          "type": "address"
        }
      ],
      "name": "OwnershipTransferred",
      "type": "event"
    },
    {
      "constant": false,
      "inputs": [
        {
          "name": "_id",
          "type": "uint16"
        },
        {
          "name": "_newname",
          "type": "string"
        }
      ],
      "name": "ChangeName",
      "outputs": [],
      "payable": false,
      "stateMutability": "nonpayable",
      "type": "function"
    },
    {
      "constant": false,
      "inputs": [
        {
          "name": "_id",
          "type": "uint16"
        },
        {
          "name": "_age",
          "type": "uint16"
        }
      ],
      "name": "ChangeAge",
      "outputs": [],
      "payable": false,
      "stateMutability": "nonpayable",
      "type": "function"
    }
  ],
  "bytecode": "0x60806040526001600360006101000a81548167ffffffffffffffff021916908367ffffffffffffffff160217905550336000806101000a81548173ffffffffffffffffffffffffffffffffffffffff021916908373ffffffffffffffffffffffffffffffffffffffff1602179055506000809054906101000a900473ffffffffffffffffffffffffffffffffffffffff1673ffffffffffffffffffffffffffffffffffffffff16600073ffffffffffffffffffffffffffffffffffffffff167f8be0079c531659141344cd1fd0a4f28419497f9722a3daafe3b4186f6b6457e060405160405180910390a361158d806100f96000396000f3fe6080604052600436106100a4576000357c0100000000000000000000000000000000000000000000000000000000900463ffffffff1680630efb583c146100a957806327017852146100db5780636b8013db14610132578063715018a6146102085780638da5cb5b1461021f5780638f32d59b14610276578063a70e28eb146102a5578063e6934395146102e1578063f2fde38b146103b7578063f9ad750314610408575b600080fd5b6100d9600480360360208110156100bf57600080fd5b81019080803561ffff169060200190929190505050610455565b005b3480156100e757600080fd5b50610118600480360360208110156100fe57600080fd5b81019080803561ffff169060200190929190505050610681565b604051808215151515815260200191505060405180910390f35b34801561013e57600080fd5b506102066004803603604081101561015557600080fd5b810190808035906020019064010000000081111561017257600080fd5b82018360208201111561018457600080fd5b803590602001918460018302840111640100000000831117156101a657600080fd5b91908080601f016020809104026020016040519081016040528093929190818152602001838380828437600081840152601f19601f820116905080830192505050505050509192919290803561ffff1690602001909291905050506106bf565b005b34801561021457600080fd5b5061021d6109fd565b005b34801561022b57600080fd5b50610234610b38565b604051808273ffffffffffffffffffffffffffffffffffffffff1673ffffffffffffffffffffffffffffffffffffffff16815260200191505060405180910390f35b34801561028257600080fd5b5061028b610b61565b604051808215151515815260200191505060405180910390f35b6102df600480360360408110156102bb57600080fd5b81019080803561ffff16906020019092919080359060200190929190505050610bb8565b005b3480156102ed57600080fd5b506103b56004803603604081101561030457600080fd5b81019080803561ffff1690602001909291908035906020019064010000000081111561032f57600080fd5b82018360208201111561034157600080fd5b8035906020019184600183028401116401000000008311171561036357600080fd5b91908080601f016020809104026020016040519081016040528093929190818152602001838380828437600081840152601f19601f820116905080830192505050505050509192919290505050610fb0565b005b3480156103c357600080fd5b50610406600480360360208110156103da57600080fd5b81019080803573ffffffffffffffffffffffffffffffffffffffff169060200190929190505050611070565b005b34801561041457600080fd5b506104536004803603604081101561042b57600080fd5b81019080803561ffff169060200190929190803561ffff1690602001909291905050506110f8565b005b6000151561046282610681565b15151480156104795750670de0b6b3a76400003410155b151561048457600080fd5b3360028261ffff1681548110151561049857fe5b906000526020600020906005020160030160006101000a81548173ffffffffffffffffffffffffffffffffffffffff021916908373ffffffffffffffffffffffffffffffffffffffff160217905550603c600360009054906101000a900467ffffffffffffffff160267ffffffffffffffff16420160028261ffff1681548110151561052057fe5b906000526020600020906005020160000160010181905550600160028261ffff1681548110151561054d57fe5b906000526020600020906005020160000160020160086101000a81548160ff02191690831515021790555060028161ffff1681548110151561058b57fe5b906000526020600020906005020160040160009054906101000a900473ffffffffffffffffffffffffffffffffffffffff1673ffffffffffffffffffffffffffffffffffffffff166108fc670de0b6b3a76400009081150290604051600060405180830381858888f1935050505015801561060a573d6000803e3d6000fd5b507fb00bc4264d98c01e81b166f16181a083cab6f3e431872977bb09daba69d7acf18133604051808361ffff1661ffff1681526020018273ffffffffffffffffffffffffffffffffffffffff1673ffffffffffffffffffffffffffffffffffffffff1681526020019250505060405180910390a150565b600060028261ffff1681548110151561069657fe5b906000526020600020906005020160000160020160089054906101000a900460ff169050919050565b6106c7611347565b60e060405190810160405280848152602001428152602001600061ffff1681526020018361ffff168152602001600a61ffff168152602001600061ffff16815260200160001515815250905061071b611397565b6060604051908101604052808381526020013373ffffffffffffffffffffffffffffffffffffffff1681526020013373ffffffffffffffffffffffffffffffffffffffff168152509050600060016002839080600181540180825580915050906001820390600052602060002090600502016000909192909190915060008201518160000160008201518160000190805190602001906107bc9291906113ec565b506020820151816001015560408201518160020160006101000a81548161ffff021916908361ffff16021790555060608201518160020160026101000a81548161ffff021916908361ffff16021790555060808201518160020160046101000a81548161ffff021916908361ffff16021790555060a08201518160020160066101000a81548161ffff021916908361ffff16021790555060c08201518160020160086101000a81548160ff021916908315150217905550505060208201518160030160006101000a81548173ffffffffffffffffffffffffffffffffffffffff021916908373ffffffffffffffffffffffffffffffffffffffff16021790555060408201518160040160006101000a81548173ffffffffffffffffffffffffffffffffffffffff021916908373ffffffffffffffffffffffffffffffffffffffff16021790555050500390508060028261ffff1681548110151561091c57fe5b906000526020600020906005020160000160020160006101000a81548161ffff021916908361ffff1602179055507f873ca2221d522355884b7227fceac43183b529ad3861edee52fb154fb1e789e78186604051808361ffff1661ffff16815260200180602001828103825283818151815260200191508051906020019080838360005b838110156109bb5780820151818401526020810190506109a0565b50505050905090810190601f1680156109e85780820380516001836020036101000a031916815260200191505b50935050505060405180910390a15050505050565b610a05610b61565b1515610a79576040517f08c379a00000000000000000000000000000000000000000000000000000000081526004018080602001828103825260208152602001807f4f776e61626c653a2063616c6c6572206973206e6f7420746865206f776e657281525060200191505060405180910390fd5b600073ffffffffffffffffffffffffffffffffffffffff166000809054906101000a900473ffffffffffffffffffffffffffffffffffffffff1673ffffffffffffffffffffffffffffffffffffffff167f8be0079c531659141344cd1fd0a4f28419497f9722a3daafe3b4186f6b6457e060405160405180910390a360008060006101000a81548173ffffffffffffffffffffffffffffffffffffffff021916908373ffffffffffffffffffffffffffffffffffffffff160217905550565b60008060009054906101000a900473ffffffffffffffffffffffffffffffffffffffff16905090565b60008060009054906101000a900473ffffffffffffffffffffffffffffffffffffffff1673ffffffffffffffffffffffffffffffffffffffff163373ffffffffffffffffffffffffffffffffffffffff1614905090565b610bc182610681565b8015610c3c575060028261ffff16815481101515610bdb57fe5b906000526020600020906005020160030160009054906101000a900473ffffffffffffffffffffffffffffffffffffffff1673ffffffffffffffffffffffffffffffffffffffff163373ffffffffffffffffffffffffffffffffffffffff16145b1515610c4757600080fd5b6000804260028561ffff16815481101515610c5e57fe5b906000526020600020906005020160000160010154101515610deb576032830260028561ffff16815481101515610c9157fe5b906000526020600020906005020160000160020160049054906101000a900461ffff1661ffff160191506001905060028461ffff16815481101515610cd257fe5b906000526020600020906005020160040160009054906101000a900473ffffffffffffffffffffffffffffffffffffffff1673ffffffffffffffffffffffffffffffffffffffff166108fc64e8d4a5100084029081150290604051600060405180830381858888f19350505050158015610d50573d6000803e3d6000fd5b5060028461ffff16815481101515610d6457fe5b906000526020600020906005020160030160009054906101000a900473ffffffffffffffffffffffffffffffffffffffff1673ffffffffffffffffffffffffffffffffffffffff166108fc670de0b6b3a764000083029081150290604051600060405180830381858888f19350505050158015610de5573d6000803e3d6000fd5b50610ec3565b6032830260028561ffff16815481101515610e0257fe5b906000526020600020906005020160000160020160049054906101000a900461ffff1661ffff160191506000905060028461ffff16815481101515610e4357fe5b906000526020600020906005020160040160009054906101000a900473ffffffffffffffffffffffffffffffffffffffff1673ffffffffffffffffffffffffffffffffffffffff166108fc64e8d4a5100084029081150290604051600060405180830381858888f19350505050158015610ec1573d6000803e3d6000fd5b505b600060028561ffff16815481101515610ed857fe5b906000526020600020906005020160000160020160086101000a81548160ff02191690831515021790555060028461ffff16815481101515610f1657fe5b906000526020600020906005020160040160009054906101000a900473ffffffffffffffffffffffffffffffffffffffff1660028561ffff16815481101515610f5b57fe5b906000526020600020906005020160030160006101000a81548173ffffffffffffffffffffffffffffffffffffffff021916908373ffffffffffffffffffffffffffffffffffffffff16021790555050505050565b813373ffffffffffffffffffffffffffffffffffffffff1660028261ffff16815481101515610fdb57fe5b906000526020600020906005020160040160009054906101000a900473ffffffffffffffffffffffffffffffffffffffff1673ffffffffffffffffffffffffffffffffffffffff1614151561102f57600080fd5b8160028461ffff1681548110151561104357fe5b9060005260206000209060050201600001600001908051906020019061106a92919061146c565b50505050565b611078610b61565b15156110ec576040517f08c379a00000000000000000000000000000000000000000000000000000000081526004018080602001828103825260208152602001807f4f776e61626c653a2063616c6c6572206973206e6f7420746865206f776e657281525060200191505060405180910390fd5b6110f5816111be565b50565b813373ffffffffffffffffffffffffffffffffffffffff1660028261ffff1681548110151561112357fe5b906000526020600020906005020160040160009054906101000a900473ffffffffffffffffffffffffffffffffffffffff1673ffffffffffffffffffffffffffffffffffffffff1614151561117757600080fd5b8160028461ffff1681548110151561118b57fe5b906000526020600020906005020160000160020160026101000a81548161ffff021916908361ffff160217905550505050565b600073ffffffffffffffffffffffffffffffffffffffff168173ffffffffffffffffffffffffffffffffffffffff1614151515611289576040517f08c379a00000000000000000000000000000000000000000000000000000000081526004018080602001828103825260268152602001807f4f776e61626c653a206e6577206f776e657220697320746865207a65726f206181526020017f646472657373000000000000000000000000000000000000000000000000000081525060400191505060405180910390fd5b8073ffffffffffffffffffffffffffffffffffffffff166000809054906101000a900473ffffffffffffffffffffffffffffffffffffffff1673ffffffffffffffffffffffffffffffffffffffff167f8be0079c531659141344cd1fd0a4f28419497f9722a3daafe3b4186f6b6457e060405160405180910390a3806000806101000a81548173ffffffffffffffffffffffffffffffffffffffff021916908373ffffffffffffffffffffffffffffffffffffffff16021790555050565b60e0604051908101604052806060815260200160008152602001600061ffff168152602001600061ffff168152602001600061ffff168152602001600061ffff1681526020016000151581525090565b610120604051908101604052806113ac6114ec565b8152602001600073ffffffffffffffffffffffffffffffffffffffff168152602001600073ffffffffffffffffffffffffffffffffffffffff1681525090565b828054600181600116156101000203166002900490600052602060002090601f016020900481019282601f1061142d57805160ff191683800117855561145b565b8280016001018555821561145b579182015b8281111561145a57825182559160200191906001019061143f565b5b509050611468919061153c565b5090565b828054600181600116156101000203166002900490600052602060002090601f016020900481019282601f106114ad57805160ff19168380011785556114db565b828001600101855582156114db579182015b828111156114da5782518255916020019190600101906114bf565b5b5090506114e8919061153c565b5090565b60e0604051908101604052806060815260200160008152602001600061ffff168152602001600061ffff168152602001600061ffff168152602001600061ffff1681526020016000151581525090565b61155e91905b8082111561155a576000816000905550600101611542565b5090565b9056fea165627a7a72305820f0434321fda7123e8d780deac79a12695beee64780a612afe97ef7b5a714d2f20029",
  "source": "pragma solidity ^0.5.0;\nimport \"./CarRenter.sol\";\n\ncontract CarHelper is CarRenter {\n    modifier OnlyOwnerOf(uint16 _id) {\n        require(vtokens[_id].owner == msg.sender);\n        _;\n    }\n    \n    function ChangeName(uint16 _id, string memory _newname) public OnlyOwnerOf(_id) {\n        vtokens[_id].car.name = _newname;\n    }\n\n    function ChangeAge(uint16 _id, uint16 _age) public OnlyOwnerOf(_id) {\n        vtokens[_id].car.age = _age;\n    }\n}",
  "sourcePath": "/home/stevenchen/桌面/Automotive-contract/contracts/CarHelper.sol",
  "compiler": {
    "name": "solc",
    "version": "0.5.0+commit.1d4f565a.Emscripten.clang"
  },
  "schemaVersion": "3.0.9",
  "updatedAt": "2019-05-23T10:59:09.090Z",
  "devdoc": {
    "methods": {
      "isOwner()": {
        "return": "true if `msg.sender` is the owner of the contract."
      },
      "owner()": {
        "return": "the address of the owner."
      },
      "renounceOwnership()": {
        "details": "Allows the current owner to relinquish control of the contract. It will not be possible to call the functions with the `onlyOwner` modifier anymore."
      },
      "transferOwnership(address)": {
        "details": "Allows the current owner to transfer control of the contract to a newOwner.",
        "params": {
          "newOwner": "The address to transfer ownership to."
        }
      }
    }
  },
  "userdoc": {
    "methods": {
      "renounceOwnership()": {
        "notice": "Renouncing ownership will leave the contract without an owner, thereby removing any functionality that is only available to the owner."
      }
    }
  }
}