{
  "contractName": "CarHelper",
  "abi": [
    {
      "constant": false,
      "inputs": [
        {
          "name": "_name",
          "type": "string"
        },
        {
          "name": "_age",
          "type": "uint16"
        },
        {
          "name": "_owner",
          "type": "address"
        }
      ],
      "name": "Add_Car",
      "outputs": [],
      "payable": false,
      "stateMutability": "nonpayable",
      "type": "function"
    },
    {
      "constant": false,
      "inputs": [
        {
          "name": "_id",
          "type": "uint16"
        }
      ],
      "name": "renounceOwnership",
      "outputs": [
        {
          "name": "",
          "type": "bool"
        }
      ],
      "payable": false,
      "stateMutability": "nonpayable",
      "type": "function"
    },
    {
      "constant": true,
      "inputs": [
        {
          "name": "_name",
          "type": "string"
        },
        {
          "name": "_age",
          "type": "uint16"
        }
      ],
      "name": "owner",
      "outputs": [
        {
          "name": "",
          "type": "address"
        }
      ],
      "payable": false,
      "stateMutability": "view",
      "type": "function"
    },
    {
      "constant": true,
      "inputs": [],
      "name": "isOwner",
      "outputs": [
        {
          "name": "",
          "type": "bool"
        }
      ],
      "payable": false,
      "stateMutability": "view",
      "type": "function"
    },
    {
      "constant": true,
      "inputs": [
        {
          "name": "_id",
          "type": "uint256"
        }
      ],
      "name": "Is_Rented",
      "outputs": [
        {
          "name": "",
          "type": "bool"
        }
      ],
      "payable": false,
      "stateMutability": "view",
      "type": "function"
    },
    {
      "constant": false,
      "inputs": [
        {
          "name": "newOwner",
          "type": "address"
        }
      ],
      "name": "transferOwnership",
      "outputs": [
        {
          "name": "",
          "type": "bool"
        }
      ],
      "payable": false,
      "stateMutability": "nonpayable",
      "type": "function"
    },
    {
      "constant": false,
      "inputs": [
        {
          "name": "_id",
          "type": "uint256",
          "indexed": false
        },
        {
          "name": "_renter",
          "type": "address",
          "indexed": false
        }
      ],
      "name": "RentCar",
      "outputs": [],
      "payable": true,
      "stateMutability": "payable",
      "type": "event",
      "anonymous": false
    },
    {
      "constant": false,
      "inputs": [
        {
          "name": "_id",
          "type": "uint256",
          "indexed": false
        },
        {
          "indexed": false,
          "name": "_name",
          "type": "string"
        }
      ],
      "name": "NewCar",
      "outputs": [],
      "payable": false,
      "stateMutability": "nonpayable",
      "type": "event",
      "anonymous": false
    },
    {
      "anonymous": false,
      "inputs": [
        {
          "indexed": true,
          "name": "previousOwner",
          "type": "address"
        },
        {
          "indexed": true,
          "name": "newOwner",
          "type": "address"
        }
      ],
      "name": "OwnershipTransferred",
      "type": "event"
    },
    {
      "anonymous": false,
      "inputs": [
        {
          "indexed": false,
          "name": "_id",
          "type": "uint256"
        },
        {
          "indexed": false,
          "name": "_newname",
          "type": "string"
        }
      ],
      "name": "ChangeName",
      "type": "function",
      "constant": false,
      "outputs": [],
      "payable": false,
      "stateMutability": "nonpayable"
    },
    {
      "anonymous": false,
      "inputs": [
        {
          "indexed": true,
          "name": "_id",
          "type": "uint256"
        },
        {
          "indexed": true,
          "name": "_newage",
          "type": "uint16"
        }
      ],
      "name": "ChangeAge",
      "type": "function",
      "constant": false,
      "outputs": [],
      "payable": false,
      "stateMutability": "nonpayable"
    },
    {
      "constant": false,
      "inputs": [
        {
          "name": "_id",
          "type": "uint16"
        },
        {
          "name": "_newname",
          "type": "string"
        }
      ],
      "name": "ChangeName",
      "outputs": [],
      "payable": false,
      "stateMutability": "nonpayable",
      "type": "function"
    },
    {
      "constant": false,
      "inputs": [
        {
          "name": "_id",
          "type": "uint16"
        },
        {
          "name": "_age",
          "type": "uint16"
        }
      ],
      "name": "ChangeAge",
      "outputs": [],
      "payable": false,
      "stateMutability": "nonpayable",
      "type": "function"
    }
  ],
  "bytecode": "0x6080604052336000806101000a81548173ffffffffffffffffffffffffffffffffffffffff021916908373ffffffffffffffffffffffffffffffffffffffff1602179055506000809054906101000a900473ffffffffffffffffffffffffffffffffffffffff1673ffffffffffffffffffffffffffffffffffffffff16600073ffffffffffffffffffffffffffffffffffffffff167f8be0079c531659141344cd1fd0a4f28419497f9722a3daafe3b4186f6b6457e060405160405180910390a3610ef8806100cf6000396000f3fe60806040526004361061008e576000357c0100000000000000000000000000000000000000000000000000000000900463ffffffff1680632024586314610093578063355e603714610189578063715018a61461025b5780638da5cb5b146102725780638f32d59b146102c9578063d653f60f146102f8578063e07ec44a1461034b578063f2fde38b14610394575b600080fd5b34801561009f57600080fd5b50610187600480360360608110156100b657600080fd5b81019080803590602001906401000000008111156100d357600080fd5b8201836020820111156100e557600080fd5b8035906020019184600183028401116401000000008311171561010757600080fd5b91908080601f016020809104026020016040519081016040528093929190818152602001838380828437600081840152601f19601f820116905080830192505050505050509192919290803561ffff169060200190929190803573ffffffffffffffffffffffffffffffffffffffff1690602001909291905050506103e5565b005b34801561019557600080fd5b50610259600480360360408110156101ac57600080fd5b8101908080359060200190929190803590602001906401000000008111156101d357600080fd5b8201836020820111156101e557600080fd5b8035906020019184600183028401116401000000008311171561020757600080fd5b91908080601f016020809104026020016040519081016040528093929190818152602001838380828437600081840152601f19601f820116905080830192505050505050509192919290505050610735565b005b34801561026757600080fd5b506102706107ea565b005b34801561027e57600080fd5b50610287610925565b604051808273ffffffffffffffffffffffffffffffffffffffff1673ffffffffffffffffffffffffffffffffffffffff16815260200191505060405180910390f35b3480156102d557600080fd5b506102de61094e565b604051808215151515815260200191505060405180910390f35b34801561030457600080fd5b506103316004803603602081101561031b57600080fd5b81019080803590602001909291905050506109a5565b604051808215151515815260200191505060405180910390f35b34801561035757600080fd5b506103926004803603604081101561036e57600080fd5b8101908080359060200190929190803561ffff169060200190929190505050610a5d565b005b3480156103a057600080fd5b506103e3600480360360208110156103b757600080fd5b81019080803573ffffffffffffffffffffffffffffffffffffffff169060200190929190505050610b18565b005b6103ed610d29565b610100604051908101604052808581526020018373ffffffffffffffffffffffffffffffffffffffff1681526020018373ffffffffffffffffffffffffffffffffffffffff168152602001428152602001600081526020018461ffff168152602001600a61ffff168152602001600061ffff168152509050600060016003839080600181540180825580915050906001820390600052602060002090600602016000909192909190915060008201518160000190805190602001906104b3929190610da7565b5060208201518160010160006101000a81548173ffffffffffffffffffffffffffffffffffffffff021916908373ffffffffffffffffffffffffffffffffffffffff16021790555060408201518160020160006101000a81548173ffffffffffffffffffffffffffffffffffffffff021916908373ffffffffffffffffffffffffffffffffffffffff160217905550606082015181600301556080820151816004015560a08201518160050160006101000a81548161ffff021916908361ffff16021790555060c08201518160050160026101000a81548161ffff021916908361ffff16021790555060e08201518160050160046101000a81548161ffff021916908361ffff1602179055505050039050806003828154811015156105d457fe5b906000526020600020906006020160040181905550336001600083815260200190815260200160002060006101000a81548173ffffffffffffffffffffffffffffffffffffffff021916908373ffffffffffffffffffffffffffffffffffffffff160217905550600260003373ffffffffffffffffffffffffffffffffffffffff1673ffffffffffffffffffffffffffffffffffffffff168152602001908152602001600020600081548092919060010191905055507fa9d268463d5f834fc19c6b87f103aef5d71f63e24312ab916432533c18ad064481866040518083815260200180602001828103825283818151815260200191508051906020019080838360005b838110156106f35780820151818401526020810190506106d8565b50505050905090810190601f1680156107205780820380516001836020036101000a031916815260200191505b50935050505060405180910390a15050505050565b813373ffffffffffffffffffffffffffffffffffffffff1660038281548110151561075c57fe5b906000526020600020906006020160010160009054906101000a900473ffffffffffffffffffffffffffffffffffffffff1673ffffffffffffffffffffffffffffffffffffffff161415156107b057600080fd5b816003848154811015156107c057fe5b906000526020600020906006020160000190805190602001906107e4929190610e27565b50505050565b6107f261094e565b1515610866576040517f08c379a00000000000000000000000000000000000000000000000000000000081526004018080602001828103825260208152602001807f4f776e61626c653a2063616c6c6572206973206e6f7420746865206f776e657281525060200191505060405180910390fd5b600073ffffffffffffffffffffffffffffffffffffffff166000809054906101000a900473ffffffffffffffffffffffffffffffffffffffff1673ffffffffffffffffffffffffffffffffffffffff167f8be0079c531659141344cd1fd0a4f28419497f9722a3daafe3b4186f6b6457e060405160405180910390a360008060006101000a81548173ffffffffffffffffffffffffffffffffffffffff021916908373ffffffffffffffffffffffffffffffffffffffff160217905550565b60008060009054906101000a900473ffffffffffffffffffffffffffffffffffffffff16905090565b60008060009054906101000a900473ffffffffffffffffffffffffffffffffffffffff1673ffffffffffffffffffffffffffffffffffffffff163373ffffffffffffffffffffffffffffffffffffffff1614905090565b60006003828154811015156109b657fe5b906000526020600020906006020160020160009054906101000a900473ffffffffffffffffffffffffffffffffffffffff1673ffffffffffffffffffffffffffffffffffffffff16600383815481101515610a0d57fe5b906000526020600020906006020160010160009054906101000a900473ffffffffffffffffffffffffffffffffffffffff1673ffffffffffffffffffffffffffffffffffffffff16149050919050565b813373ffffffffffffffffffffffffffffffffffffffff16600382815481101515610a8457fe5b906000526020600020906006020160010160009054906101000a900473ffffffffffffffffffffffffffffffffffffffff1673ffffffffffffffffffffffffffffffffffffffff16141515610ad857600080fd5b81600384815481101515610ae857fe5b906000526020600020906006020160050160006101000a81548161ffff021916908361ffff160217905550505050565b610b2061094e565b1515610b94576040517f08c379a00000000000000000000000000000000000000000000000000000000081526004018080602001828103825260208152602001807f4f776e61626c653a2063616c6c6572206973206e6f7420746865206f776e657281525060200191505060405180910390fd5b610b9d81610ba0565b50565b600073ffffffffffffffffffffffffffffffffffffffff168173ffffffffffffffffffffffffffffffffffffffff1614151515610c6b576040517f08c379a00000000000000000000000000000000000000000000000000000000081526004018080602001828103825260268152602001807f4f776e61626c653a206e6577206f776e657220697320746865207a65726f206181526020017f646472657373000000000000000000000000000000000000000000000000000081525060400191505060405180910390fd5b8073ffffffffffffffffffffffffffffffffffffffff166000809054906101000a900473ffffffffffffffffffffffffffffffffffffffff1673ffffffffffffffffffffffffffffffffffffffff167f8be0079c531659141344cd1fd0a4f28419497f9722a3daafe3b4186f6b6457e060405160405180910390a3806000806101000a81548173ffffffffffffffffffffffffffffffffffffffff021916908373ffffffffffffffffffffffffffffffffffffffff16021790555050565b6101006040519081016040528060608152602001600073ffffffffffffffffffffffffffffffffffffffff168152602001600073ffffffffffffffffffffffffffffffffffffffff1681526020016000815260200160008152602001600061ffff168152602001600061ffff168152602001600061ffff1681525090565b828054600181600116156101000203166002900490600052602060002090601f016020900481019282601f10610de857805160ff1916838001178555610e16565b82800160010185558215610e16579182015b82811115610e15578251825591602001919060010190610dfa565b5b509050610e239190610ea7565b5090565b828054600181600116156101000203166002900490600052602060002090601f016020900481019282601f10610e6857805160ff1916838001178555610e96565b82800160010185558215610e96579182015b82811115610e95578251825591602001919060010190610e7a565b5b509050610ea39190610ea7565b5090565b610ec991905b80821115610ec5576000816000905550600101610ead565b5090565b9056fea165627a7a723058200a0163500d60ebb5e3b69533ef7f9d53ee0108b6a2abd48a3c8d49c7659e6f3e0029",
  "source": "pragma solidity ^0.5.0;\nimport \"./CarBase.sol\";\nimport \"./erc721.sol\";\n\ncontract CarHelper is CarBase {\n    modifier OnlyOwnerOf(uint _id) {\n        require(cars[_id].owner == msg.sender);\n        _;\n    }\n    \n    function ChangeName(uint _id, string memory _newname) public OnlyOwnerOf(_id) {\n        cars[_id].name = _newname;\n    }\n\n    function ChangeAge(uint _id, uint16 _newage) public OnlyOwnerOf(_id) {\n        cars[_id].age = _newage;\n    }\n}\n\ncontract CarOwnership is CarBase, ERC721 {\n    string public constant name = \"Vtoken\";\n    string public constant symbol = \"V\";\n\n    function balanceOf(address _owner) public view returns (uint256 _balance) {\n        return ownerTokenCount[_owner];\n    }\n\n    function ownerOf(uint _tokenId) public view returns (address _owner) {\n        return cars[_tokenId].owner;\n    }\n\n    function approve(address _to, uint _tokenId) public { // approval is used for renting car\n        address payable addr = address(uint160(_to)); //turn _to from address to address payable\n        cars[_tokenId].renter = addr;\n\n        emit Approval(cars[_tokenId].owner, _to, _tokenId);\n    }\n\n    function getApproved(uint _tokenId) public view returns(address _operator) {\n        address addr = cars[_tokenId].renter;\n        return addr;\n    }\n\n    function transferFrom(address _from, address _to, uint _tokenId) public {\n        require(msg.sender == _from && _from == cars[_tokenId].owner);\n\n        address payable addr_to = address(uint160(_to));\n        /*address payable addr_from = address(uint160(_from));*/\n        car2owner[_tokenId] = addr_to;\n        ownerTokenCount[_from].sub(1);\n        ownerTokenCount[_to].add(1);\n        cars[_tokenId].owner = addr_to;\n        emit Transfer(_from, _to, _tokenId);\n    }\n}",
  "sourcePath": "/home/stevenchen/桌面/Automotive-contract/contracts/CarHelper.sol",
  "compiler": {
    "name": "solc",
    "version": "0.5.0+commit.1d4f565a.Emscripten.clang"
  },
  "schemaVersion": "3.0.9",
  "updatedAt": "2019-05-24T09:52:29.111Z",
  "devdoc": {
    "methods": {
      "isOwner()": {
        "return": "true if `msg.sender` is the owner of the contract."
      },
      "owner()": {
        "return": "the address of the owner."
      },
      "renounceOwnership()": {
        "details": "Allows the current owner to relinquish control of the contract. It will not be possible to call the functions with the `onlyOwner` modifier anymore."
      },
      "transferOwnership(address)": {
        "details": "Allows the current owner to transfer control of the contract to a newOwner.",
        "params": {
          "newOwner": "The address to transfer ownership to."
        }
      }
    }
  },
  "userdoc": {
    "methods": {
      "renounceOwnership()": {
        "notice": "Renouncing ownership will leave the contract without an owner, thereby removing any functionality that is only available to the owner."
      }
    }
  }
}