{
  "contractName": "CarHelper",
  "abi": [
    {
      "constant": false,
      "inputs": [
        {
          "name": "_name",
          "type": "string"
        },
        {
          "name": "_age",
          "type": "uint16"
        },
        {
          "name": "_owner",
          "type": "address"
        }
      ],
      "name": "renounceOwnership",
      "outputs": [],
      "payable": false,
      "stateMutability": "nonpayable",
      "type": "function"
    },
    {
      "constant": true,
      "inputs": [
        {
          "name": "_id",
          "type": "uint16"
        }
      ],
      "name": "owner",
      "outputs": [
        {
          "name": "",
          "type": "address"
        }
      ],
      "payable": false,
      "stateMutability": "view",
      "type": "function"
    },
    {
      "constant": true,
      "inputs": [
        {
          "name": "_name",
          "type": "string"
        },
        {
          "name": "_age",
          "type": "uint16"
        }
      ],
      "name": "isOwner",
      "outputs": [
        {
          "name": "",
          "type": "bool"
        }
      ],
      "payable": false,
      "stateMutability": "view",
      "type": "function"
    },
    {
      "constant": true,
      "inputs": [
        {
          "name": "_id",
          "type": "uint256"
        }
      ],
      "name": "Is_Rented",
      "outputs": [
        {
          "name": "",
          "type": "bool"
        }
      ],
      "payable": false,
      "stateMutability": "view",
      "type": "function"
    },
    {
      "constant": false,
      "inputs": [
        {
          "name": "newOwner",
          "type": "address"
        }
      ],
      "name": "transferOwnership",
      "outputs": [
        {
          "name": "",
          "type": "bool"
        }
      ],
      "payable": false,
      "stateMutability": "nonpayable",
      "type": "function"
    },
    {
      "constant": false,
      "inputs": [
        {
          "name": "_id",
          "type": "uint256",
          "indexed": false
        },
        {
          "indexed": false,
          "name": "_renter",
          "type": "address"
        }
      ],
      "name": "RentCar",
      "outputs": [
        {
          "name": "",
          "type": "bool"
        }
      ],
      "payable": false,
      "stateMutability": "nonpayable",
      "type": "event",
      "anonymous": false
    },
    {
      "constant": false,
      "inputs": [
        {
          "name": "_id",
          "type": "uint256",
          "indexed": false
        },
        {
          "name": "_name",
          "type": "string",
          "indexed": false
        }
      ],
      "name": "NewCar",
      "outputs": [],
      "payable": true,
      "stateMutability": "payable",
      "type": "event",
      "anonymous": false
    },
    {
      "constant": false,
      "inputs": [
        {
          "name": "previousOwner",
          "type": "address",
          "indexed": true
        },
        {
          "indexed": true,
          "name": "newOwner",
          "type": "address"
        }
      ],
      "name": "OwnershipTransferred",
      "outputs": [],
      "payable": false,
      "stateMutability": "nonpayable",
      "type": "event",
      "anonymous": false
    },
    {
      "anonymous": false,
      "inputs": [
        {
          "indexed": true,
          "name": "_id",
          "type": "uint256"
        },
        {
          "indexed": true,
          "name": "_newname",
          "type": "string"
        }
      ],
      "name": "ChangeName",
      "type": "function",
      "constant": false,
      "outputs": [],
      "payable": false,
      "stateMutability": "nonpayable"
    },
    {
      "anonymous": false,
      "inputs": [
        {
          "indexed": false,
          "name": "_id",
          "type": "uint256"
        },
        {
          "indexed": false,
          "name": "_newage",
          "type": "uint16"
        }
      ],
      "name": "ChangeAge",
      "type": "function",
      "constant": false,
      "outputs": [],
      "payable": false,
      "stateMutability": "nonpayable"
    },
    {
      "anonymous": false,
      "inputs": [
        {
          "indexed": true,
          "name": "_id",
          "type": "uint256"
        },
        {
          "indexed": true,
          "name": "_newage",
          "type": "uint16"
        }
      ],
      "name": "ChangeAge",
      "type": "function",
      "constant": false,
      "outputs": [],
      "payable": false,
      "stateMutability": "nonpayable"
    },
    {
      "constant": false,
      "inputs": [
        {
          "name": "_id",
          "type": "uint16"
        },
        {
          "name": "_newname",
          "type": "string"
        }
      ],
      "name": "ChangeName",
      "outputs": [],
      "payable": false,
      "stateMutability": "nonpayable",
      "type": "function"
    },
    {
      "constant": false,
      "inputs": [
        {
          "name": "_id",
          "type": "uint16"
        },
        {
          "name": "_age",
          "type": "uint16"
        }
      ],
      "name": "ChangeAge",
      "outputs": [],
      "payable": false,
      "stateMutability": "nonpayable",
      "type": "function"
    }
  ],
  "bytecode": "0x6080604052336000806101000a81548173ffffffffffffffffffffffffffffffffffffffff021916908373ffffffffffffffffffffffffffffffffffffffff1602179055506000809054906101000a900473ffffffffffffffffffffffffffffffffffffffff1673ffffffffffffffffffffffffffffffffffffffff16600073ffffffffffffffffffffffffffffffffffffffff167f8be0079c531659141344cd1fd0a4f28419497f9722a3daafe3b4186f6b6457e060405160405180910390a3610a7c806100cf6000396000f3fe608060405260043610610083576000357c0100000000000000000000000000000000000000000000000000000000900463ffffffff168063355e603714610088578063715018a61461015a5780638da5cb5b146101715780638f32d59b146101c8578063d653f60f146101f7578063e07ec44a1461024a578063f2fde38b14610293575b600080fd5b34801561009457600080fd5b50610158600480360360408110156100ab57600080fd5b8101908080359060200190929190803590602001906401000000008111156100d257600080fd5b8201836020820111156100e457600080fd5b8035906020019184600183028401116401000000008311171561010657600080fd5b91908080601f016020809104026020016040519081016040528093929190818152602001838380828437600081840152601f19601f8201169050808301925050505050505091929192905050506102e4565b005b34801561016657600080fd5b5061016f610402565b005b34801561017d57600080fd5b5061018661053d565b604051808273ffffffffffffffffffffffffffffffffffffffff1673ffffffffffffffffffffffffffffffffffffffff16815260200191505060405180910390f35b3480156101d457600080fd5b506101dd610566565b604051808215151515815260200191505060405180910390f35b34801561020357600080fd5b506102306004803603602081101561021a57600080fd5b81019080803590602001909291905050506105bd565b604051808215151515815260200191505060405180910390f35b34801561025657600080fd5b506102916004803603604081101561026d57600080fd5b8101908080359060200190929190803561ffff169060200190929190505050610676565b005b34801561029f57600080fd5b506102e2600480360360208110156102b657600080fd5b81019080803573ffffffffffffffffffffffffffffffffffffffff16906020019092919050505061079a565b005b813373ffffffffffffffffffffffffffffffffffffffff1660038281548110151561030b57fe5b906000526020600020906006020160010160009054906101000a900473ffffffffffffffffffffffffffffffffffffffff1673ffffffffffffffffffffffffffffffffffffffff161415156103c8576040517f08c379a000000000000000000000000000000000000000000000000000000000815260040180806020018281038252600e8152602001807f4e6f7420746865206f776e65722100000000000000000000000000000000000081525060200191505060405180910390fd5b816003848154811015156103d857fe5b906000526020600020906006020160000190805190602001906103fc9291906109ab565b50505050565b61040a610566565b151561047e576040517f08c379a00000000000000000000000000000000000000000000000000000000081526004018080602001828103825260208152602001807f4f776e61626c653a2063616c6c6572206973206e6f7420746865206f776e657281525060200191505060405180910390fd5b600073ffffffffffffffffffffffffffffffffffffffff166000809054906101000a900473ffffffffffffffffffffffffffffffffffffffff1673ffffffffffffffffffffffffffffffffffffffff167f8be0079c531659141344cd1fd0a4f28419497f9722a3daafe3b4186f6b6457e060405160405180910390a360008060006101000a81548173ffffffffffffffffffffffffffffffffffffffff021916908373ffffffffffffffffffffffffffffffffffffffff160217905550565b60008060009054906101000a900473ffffffffffffffffffffffffffffffffffffffff16905090565b60008060009054906101000a900473ffffffffffffffffffffffffffffffffffffffff1673ffffffffffffffffffffffffffffffffffffffff163373ffffffffffffffffffffffffffffffffffffffff1614905090565b60006003828154811015156105ce57fe5b906000526020600020906006020160020160009054906101000a900473ffffffffffffffffffffffffffffffffffffffff1673ffffffffffffffffffffffffffffffffffffffff1660038381548110151561062557fe5b906000526020600020906006020160010160009054906101000a900473ffffffffffffffffffffffffffffffffffffffff1673ffffffffffffffffffffffffffffffffffffffff1614159050919050565b813373ffffffffffffffffffffffffffffffffffffffff1660038281548110151561069d57fe5b906000526020600020906006020160010160009054906101000a900473ffffffffffffffffffffffffffffffffffffffff1673ffffffffffffffffffffffffffffffffffffffff1614151561075a576040517f08c379a000000000000000000000000000000000000000000000000000000000815260040180806020018281038252600e8152602001807f4e6f7420746865206f776e65722100000000000000000000000000000000000081525060200191505060405180910390fd5b8160038481548110151561076a57fe5b906000526020600020906006020160050160006101000a81548161ffff021916908361ffff160217905550505050565b6107a2610566565b1515610816576040517f08c379a00000000000000000000000000000000000000000000000000000000081526004018080602001828103825260208152602001807f4f776e61626c653a2063616c6c6572206973206e6f7420746865206f776e657281525060200191505060405180910390fd5b61081f81610822565b50565b600073ffffffffffffffffffffffffffffffffffffffff168173ffffffffffffffffffffffffffffffffffffffff16141515156108ed576040517f08c379a00000000000000000000000000000000000000000000000000000000081526004018080602001828103825260268152602001807f4f776e61626c653a206e6577206f776e657220697320746865207a65726f206181526020017f646472657373000000000000000000000000000000000000000000000000000081525060400191505060405180910390fd5b8073ffffffffffffffffffffffffffffffffffffffff166000809054906101000a900473ffffffffffffffffffffffffffffffffffffffff1673ffffffffffffffffffffffffffffffffffffffff167f8be0079c531659141344cd1fd0a4f28419497f9722a3daafe3b4186f6b6457e060405160405180910390a3806000806101000a81548173ffffffffffffffffffffffffffffffffffffffff021916908373ffffffffffffffffffffffffffffffffffffffff16021790555050565b828054600181600116156101000203166002900490600052602060002090601f016020900481019282601f106109ec57805160ff1916838001178555610a1a565b82800160010185558215610a1a579182015b82811115610a195782518255916020019190600101906109fe565b5b509050610a279190610a2b565b5090565b610a4d91905b80821115610a49576000816000905550600101610a31565b5090565b9056fea165627a7a72305820d3737c58e1dc8655ceb4c324f53e41f2b01a276d511e1ee23ab7ac38d87f63940029",
  "source": "pragma solidity ^0.5.0;\nimport \"./CarBase.sol\";\nimport \"./erc721.sol\";\n\ncontract CarHelper is CarBase {\n    modifier OnlyOwnerOf(uint _id) {\n        require(cars[_id].owner == msg.sender, \"Not the owner!\");\n        _;\n    }\n    \n    function ChangeName(uint _id, string memory _newname) public OnlyOwnerOf(_id) {\n        cars[_id].name = _newname;\n    }\n\n    function ChangeAge(uint _id, uint16 _newage) public OnlyOwnerOf(_id) {\n        cars[_id].age = _newage;\n    }\n}\n\ncontract CarOwnership is CarBase, ERC721 {\n    string public constant name = \"Vtoken\";\n    string public constant symbol = \"V\";\n\n    function balanceOf(address _owner) public view returns (uint256 _balance) {\n        return ownerTokenCount[_owner];\n    }\n\n    function ownerOf(uint _tokenId) public view returns (address _owner) {\n        return cars[_tokenId].owner;\n    }\n\n    function approve(address _to, uint _tokenId) public { // approval is used for renting car\n        address payable addr = address(uint160(_to)); //turn _to from address to address payable\n        cars[_tokenId].renter = addr;\n\n        emit Approval(cars[_tokenId].owner, _to, _tokenId);\n    }\n\n    function getApproved(uint _tokenId) public view returns(address _operator) {\n        address addr = cars[_tokenId].renter;\n        return addr;\n    }\n\n    function transferFrom(address _from, address _to, uint _tokenId) public {\n        require(msg.sender == _from && _from == cars[_tokenId].owner, \"Failed to tranfer!\");\n\n        address payable addr_to = address(uint160(_to));\n        /*address payable addr_from = address(uint160(_from));*/\n        car2owner[_tokenId] = addr_to;\n        ownerTokenCount[_from].sub(1);\n        ownerTokenCount[_to].add(1);\n        cars[_tokenId].owner = addr_to;\n        emit Transfer(_from, _to, _tokenId);\n    }\n}",
  "sourcePath": "/home/stevenchen/桌面/Automotive-contract/contracts/CarHelper.sol",
  "compiler": {
    "name": "solc",
    "version": "0.5.0+commit.1d4f565a.Emscripten.clang"
  },
  "schemaVersion": "3.0.9",
  "updatedAt": "2019-05-24T14:13:02.953Z",
  "devdoc": {
    "methods": {
      "isOwner()": {
        "return": "true if `msg.sender` is the owner of the contract."
      },
      "owner()": {
        "return": "the address of the owner."
      },
      "renounceOwnership()": {
        "details": "Allows the current owner to relinquish control of the contract. It will not be possible to call the functions with the `onlyOwner` modifier anymore."
      },
      "transferOwnership(address)": {
        "details": "Allows the current owner to transfer control of the contract to a newOwner.",
        "params": {
          "newOwner": "The address to transfer ownership to."
        }
      }
    }
  },
  "userdoc": {
    "methods": {
      "renounceOwnership()": {
        "notice": "Renouncing ownership will leave the contract without an owner, thereby removing any functionality that is only available to the owner."
      }
    }
  }
}