{
  "contractName": "CarRenter",
  "abi": [
    {
      "constant": false,
      "inputs": [],
      "name": "renounceOwnership",
      "outputs": [],
      "payable": false,
      "stateMutability": "nonpayable",
      "type": "function"
    },
    {
      "constant": true,
      "inputs": [],
      "name": "owner",
      "outputs": [
        {
          "name": "",
          "type": "address"
        }
      ],
      "payable": false,
      "stateMutability": "view",
      "type": "function"
    },
    {
      "constant": true,
      "inputs": [],
      "name": "isOwner",
      "outputs": [
        {
          "name": "",
          "type": "bool"
        }
      ],
      "payable": false,
      "stateMutability": "view",
      "type": "function"
    },
    {
      "constant": false,
      "inputs": [
        {
          "name": "newOwner",
          "type": "address"
        }
      ],
      "name": "transferOwnership",
      "outputs": [],
      "payable": false,
      "stateMutability": "nonpayable",
      "type": "function"
    },
    {
      "anonymous": false,
      "inputs": [
        {
          "indexed": false,
          "name": "_id",
          "type": "uint16"
        },
        {
          "indexed": false,
          "name": "_renter",
          "type": "address"
        }
      ],
      "name": "RentCar",
      "type": "event"
    },
    {
      "anonymous": false,
      "inputs": [
        {
          "indexed": false,
          "name": "_id",
          "type": "uint16"
        },
        {
          "indexed": false,
          "name": "_name",
          "type": "string"
        }
      ],
      "name": "NewVtoken",
      "type": "event"
    },
    {
      "anonymous": false,
      "inputs": [
        {
          "indexed": true,
          "name": "previousOwner",
          "type": "address"
        },
        {
          "indexed": true,
          "name": "newOwner",
          "type": "address"
        }
      ],
      "name": "OwnershipTransferred",
      "type": "event"
    },
    {
      "constant": true,
      "inputs": [
        {
          "name": "_id",
          "type": "uint16"
        }
      ],
      "name": "Is_Rented",
      "outputs": [
        {
          "name": "",
          "type": "bool"
        }
      ],
      "payable": false,
      "stateMutability": "view",
      "type": "function"
    },
    {
      "constant": false,
      "inputs": [
        {
          "name": "_id",
          "type": "uint16"
        }
      ],
      "name": "Rent_Car",
      "outputs": [],
      "payable": true,
      "stateMutability": "payable",
      "type": "function"
    },
    {
      "constant": false,
      "inputs": [
        {
          "name": "_id",
          "type": "uint16"
        },
        {
          "name": "_oil",
          "type": "uint256"
        }
      ],
      "name": "Return_Car",
      "outputs": [],
      "payable": true,
      "stateMutability": "payable",
      "type": "function"
    }
  ],
  "bytecode": "0x60806040526001600360006101000a81548167ffffffffffffffff021916908367ffffffffffffffff160217905550336000806101000a81548173ffffffffffffffffffffffffffffffffffffffff021916908373ffffffffffffffffffffffffffffffffffffffff1602179055506000809054906101000a900473ffffffffffffffffffffffffffffffffffffffff1673ffffffffffffffffffffffffffffffffffffffff16600073ffffffffffffffffffffffffffffffffffffffff167f8be0079c531659141344cd1fd0a4f28419497f9722a3daafe3b4186f6b6457e060405160405180910390a3610bfe806100f96000396000f3fe608060405260043610610083576000357c0100000000000000000000000000000000000000000000000000000000900463ffffffff1680630efb583c1461008857806327017852146100ba578063715018a6146101115780638da5cb5b146101285780638f32d59b1461017f578063a70e28eb146101ae578063f2fde38b146101ea575b600080fd5b6100b86004803603602081101561009e57600080fd5b81019080803561ffff16906020019092919050505061023b565b005b3480156100c657600080fd5b506100f7600480360360208110156100dd57600080fd5b81019080803561ffff1690602001909291905050506103d4565b604051808215151515815260200191505060405180910390f35b34801561011d57600080fd5b5061012661040e565b005b34801561013457600080fd5b5061013d610549565b604051808273ffffffffffffffffffffffffffffffffffffffff1673ffffffffffffffffffffffffffffffffffffffff16815260200191505060405180910390f35b34801561018b57600080fd5b50610194610572565b604051808215151515815260200191505060405180910390f35b6101e8600480360360408110156101c457600080fd5b81019080803561ffff169060200190929190803590602001909291905050506105c9565b005b3480156101f657600080fd5b506102396004803603602081101561020d57600080fd5b81019080803573ffffffffffffffffffffffffffffffffffffffff1690602001909291905050506109c1565b005b60001515610248826103d4565b151514801561025f5750670de0b6b3a76400003410155b151561026a57600080fd5b3360028261ffff1681548110151561027e57fe5b906000526020600020906005020160030160006101000a81548173ffffffffffffffffffffffffffffffffffffffff021916908373ffffffffffffffffffffffffffffffffffffffff160217905550603c600360009054906101000a900467ffffffffffffffff160267ffffffffffffffff16420160028261ffff1681548110151561030657fe5b906000526020600020906005020160000160010181905550600160028261ffff1681548110151561033357fe5b906000526020600020906005020160000160020160086101000a81548160ff0219169083151502179055507fb00bc4264d98c01e81b166f16181a083cab6f3e431872977bb09daba69d7acf18133604051808361ffff1661ffff1681526020018273ffffffffffffffffffffffffffffffffffffffff1673ffffffffffffffffffffffffffffffffffffffff1681526020019250505060405180910390a150565b600060028261ffff168154811015156103e957fe5b906000526020600020906005020160000160020160089054906101000a905050919050565b610416610572565b151561048a576040517f08c379a00000000000000000000000000000000000000000000000000000000081526004018080602001828103825260208152602001807f4f776e61626c653a2063616c6c6572206973206e6f7420746865206f776e657281525060200191505060405180910390fd5b600073ffffffffffffffffffffffffffffffffffffffff166000809054906101000a900473ffffffffffffffffffffffffffffffffffffffff1673ffffffffffffffffffffffffffffffffffffffff167f8be0079c531659141344cd1fd0a4f28419497f9722a3daafe3b4186f6b6457e060405160405180910390a360008060006101000a81548173ffffffffffffffffffffffffffffffffffffffff021916908373ffffffffffffffffffffffffffffffffffffffff160217905550565b60008060009054906101000a900473ffffffffffffffffffffffffffffffffffffffff16905090565b60008060009054906101000a900473ffffffffffffffffffffffffffffffffffffffff1673ffffffffffffffffffffffffffffffffffffffff163373ffffffffffffffffffffffffffffffffffffffff1614905090565b6105d2826103d4565b801561064d575060028261ffff168154811015156105ec57fe5b906000526020600020906005020160030160009054906101000a900473ffffffffffffffffffffffffffffffffffffffff1673ffffffffffffffffffffffffffffffffffffffff163373ffffffffffffffffffffffffffffffffffffffff16145b151561065857600080fd5b6000804260028561ffff1681548110151561066f57fe5b9060005260206000209060050201600001600101541015156107fc576032830260028561ffff168154811015156106a257fe5b906000526020600020906005020160000160020160049054906101000a900461ffff1661ffff160191506001905060028461ffff168154811015156106e357fe5b906000526020600020906005020160040160009054906101000a900473ffffffffffffffffffffffffffffffffffffffff1673ffffffffffffffffffffffffffffffffffffffff166108fc64e8d4a5100084029081150290604051600060405180830381858888f19350505050158015610761573d6000803e3d6000fd5b5060028461ffff1681548110151561077557fe5b906000526020600020906005020160030160009054906101000a900473ffffffffffffffffffffffffffffffffffffffff1673ffffffffffffffffffffffffffffffffffffffff166108fc670de0b6b3a764000083029081150290604051600060405180830381858888f193505050501580156107f6573d6000803e3d6000fd5b506108d4565b6032830260028561ffff1681548110151561081357fe5b906000526020600020906005020160000160020160049054906101000a900461ffff1661ffff160191506000905060028461ffff1681548110151561085457fe5b906000526020600020906005020160040160009054906101000a900473ffffffffffffffffffffffffffffffffffffffff1673ffffffffffffffffffffffffffffffffffffffff166108fc64e8d4a5100084029081150290604051600060405180830381858888f193505050501580156108d2573d6000803e3d6000fd5b505b600060028561ffff168154811015156108e957fe5b906000526020600020906005020160000160020160086101000a81548160ff02191690831515021790555060028461ffff1681548110151561092757fe5b906000526020600020906005020160040160009054906101000a900473ffffffffffffffffffffffffffffffffffffffff1660028561ffff1681548110151561096c57fe5b906000526020600020906005020160030160006101000a81548173ffffffffffffffffffffffffffffffffffffffff021916908373ffffffffffffffffffffffffffffffffffffffff16021790555050505050565b6109c9610572565b1515610a3d576040517f08c379a00000000000000000000000000000000000000000000000000000000081526004018080602001828103825260208152602001807f4f776e61626c653a2063616c6c6572206973206e6f7420746865206f776e657281525060200191505060405180910390fd5b610a4681610a49565b50565b600073ffffffffffffffffffffffffffffffffffffffff168173ffffffffffffffffffffffffffffffffffffffff1614151515610b14576040517f08c379a00000000000000000000000000000000000000000000000000000000081526004018080602001828103825260268152602001807f4f776e61626c653a206e6577206f776e657220697320746865207a65726f206181526020017f646472657373000000000000000000000000000000000000000000000000000081525060400191505060405180910390fd5b8073ffffffffffffffffffffffffffffffffffffffff166000809054906101000a900473ffffffffffffffffffffffffffffffffffffffff1673ffffffffffffffffffffffffffffffffffffffff167f8be0079c531659141344cd1fd0a4f28419497f9722a3daafe3b4186f6b6457e060405160405180910390a3806000806101000a81548173ffffffffffffffffffffffffffffffffffffffff021916908373ffffffffffffffffffffffffffffffffffffffff1602179055505056fea165627a7a72305820e16fba5a663b5a57d91712c179a76d53544b4bb4eae7bb4e6c64636fc4da52bb0029",
  "source": "pragma solidity ^0.5.0;\nimport \"./ownable.sol\";\nimport \"./SafeMath.sol\";\n\ncontract CarRenter is Ownable{\n\n    using SafeMath for uint256;\n    using SafeMath16 for uint16;\n\n    event RentCar(uint16 _id, address _renter);\n    event NewVtoken(uint16 _id, string _name);\n\n    mapping (uint16 => address) car2owner;\n\n    struct VToken {\n        Car car;\n        address payable renter;\n        address payable owner;\n    }\n    \n    struct Car {\n        string name;\n        uint rent_time; // now + expected renting time\n        uint16 id;\n        uint16 age;\n        uint16 price;\n        uint16 crash_number;\n        bool is_rented;\n\n    }\n\n    VToken[] vtokens;\n    uint64 basic_renttime = 1;\n\n    function Create_Vtoken(string memory _name, uint16 _age) internal { // call by car wallet\n        Car memory newcar = Car(_name, now, 0, _age, 10, 0, false);\n        VToken memory vtoken = VToken(newcar, msg.sender, msg.sender);\n        uint16 id = uint16(vtokens.push(vtoken) - 1);// add to array and update id value\n        vtokens[id].car.id = id;\n        emit NewVtoken(id, _name);\n    }\n\n    function Is_Rented(uint16 _id) public view returns (bool){\n        //return cars[_id].is_rented;\n        vtokens[_id].car.is_rented;\n    }\n\n    function Rent_Car(uint16 _id) public payable {\n        require(Is_Rented(_id) == false && msg.value >= 1 ether);\n\n        vtokens[_id].renter = msg.sender;\n        vtokens[_id].car.rent_time = now + basic_renttime * 60;\n        vtokens[_id].car.is_rented = true;\n\n        emit RentCar(_id, msg.sender);\n    }\n\n    function Return_Car(uint16 _id, uint _oil) public payable {\n        require(Is_Rented(_id) && msg.sender == vtokens[_id].renter);\n        uint toOwner;\n        uint toRenter;\n\n        if (vtokens[_id].car.rent_time >= now) {\n            toOwner = vtokens[_id].car.price + _oil * 50;\n            toRenter = 1;\n            vtokens[_id].owner.transfer(toOwner * 1 szabo);\n            vtokens[_id].renter.transfer(toRenter * 1 ether);\n        }\n        else {\n            toOwner = vtokens[_id].car.price + _oil * 50;\n            toRenter = 0; //penalty for delay\n            vtokens[_id].owner.transfer(toOwner * 1 szabo);\n        }\n\n        vtokens[_id].car.is_rented = false;\n        vtokens[_id].renter = vtokens[_id].owner;\n\n    }\n\n}",
  "sourcePath": "/home/stevenchen/桌面/Automotive-contract/contracts/CarRenter.sol",
  "compiler": {
    "name": "solc",
    "version": "0.5.0+commit.1d4f565a.Emscripten.clang"
  },
  "schemaVersion": "3.0.9",
  "updatedAt": "2019-05-23T10:27:58.469Z",
  "devdoc": {
    "methods": {
      "isOwner()": {
        "return": "true if `msg.sender` is the owner of the contract."
      },
      "owner()": {
        "return": "the address of the owner."
      },
      "renounceOwnership()": {
        "details": "Allows the current owner to relinquish control of the contract. It will not be possible to call the functions with the `onlyOwner` modifier anymore."
      },
      "transferOwnership(address)": {
        "details": "Allows the current owner to transfer control of the contract to a newOwner.",
        "params": {
          "newOwner": "The address to transfer ownership to."
        }
      }
    }
  },
  "userdoc": {
    "methods": {
      "renounceOwnership()": {
        "notice": "Renouncing ownership will leave the contract without an owner, thereby removing any functionality that is only available to the owner."
      }
    }
  }
}