{
  "contractName": "CarRenter",
  "abi": [
    {
      "constant": true,
      "inputs": [],
      "name": "name",
      "outputs": [
        {
          "name": "",
          "type": "string"
        }
      ],
      "payable": false,
      "stateMutability": "view",
      "type": "function"
    },
    {
      "constant": true,
      "inputs": [
        {
          "name": "_tokenId",
          "type": "uint256"
        }
      ],
      "name": "getApproved",
      "outputs": [
        {
          "name": "_operator",
          "type": "address"
        }
      ],
      "payable": false,
      "stateMutability": "view",
      "type": "function"
    },
    {
      "constant": false,
      "inputs": [
        {
          "name": "_to",
          "type": "address"
        },
        {
          "name": "_tokenId",
          "type": "uint256"
        }
      ],
      "name": "approve",
      "outputs": [],
      "payable": false,
      "stateMutability": "nonpayable",
      "type": "function"
    },
    {
      "constant": false,
      "inputs": [
        {
          "name": "_from",
          "type": "address"
        },
        {
          "name": "_to",
          "type": "address"
        },
        {
          "name": "_tokenId",
          "type": "uint256"
        }
      ],
      "name": "transferFrom",
      "outputs": [],
      "payable": false,
      "stateMutability": "nonpayable",
      "type": "function"
    },
    {
      "constant": false,
      "inputs": [
        {
          "name": "_id",
          "type": "uint256"
        },
        {
          "name": "_newname",
          "type": "string"
        },
        {
          "name": "_tokenId",
          "type": "uint256"
        }
      ],
      "name": "ChangeName",
      "outputs": [],
      "payable": false,
      "stateMutability": "nonpayable",
      "type": "function"
    },
    {
      "constant": true,
      "inputs": [
        {
          "name": "_tokenId",
          "type": "uint256"
        },
        {
          "name": "_newname",
          "type": "string"
        }
      ],
      "name": "ownerOf",
      "outputs": [
        {
          "name": "_owner",
          "type": "address"
        }
      ],
      "payable": false,
      "stateMutability": "view",
      "type": "function"
    },
    {
      "constant": true,
      "inputs": [
        {
          "name": "_owner",
          "type": "address"
        }
      ],
      "name": "balanceOf",
      "outputs": [
        {
          "name": "_balance",
          "type": "uint256"
        }
      ],
      "payable": false,
      "stateMutability": "view",
      "type": "function"
    },
    {
      "constant": false,
      "inputs": [
        {
          "name": "_owner",
          "type": "address"
        }
      ],
      "name": "renounceOwnership",
      "outputs": [
        {
          "name": "_balance",
          "type": "uint256"
        }
      ],
      "payable": false,
      "stateMutability": "nonpayable",
      "type": "function"
    },
    {
      "constant": true,
      "inputs": [],
      "name": "owner",
      "outputs": [
        {
          "name": "",
          "type": "address"
        }
      ],
      "payable": false,
      "stateMutability": "view",
      "type": "function"
    },
    {
      "constant": true,
      "inputs": [],
      "name": "isOwner",
      "outputs": [
        {
          "name": "",
          "type": "bool"
        }
      ],
      "payable": false,
      "stateMutability": "view",
      "type": "function"
    },
    {
      "constant": true,
      "inputs": [],
      "name": "symbol",
      "outputs": [
        {
          "name": "",
          "type": "string"
        }
      ],
      "payable": false,
      "stateMutability": "view",
      "type": "function"
    },
    {
      "constant": true,
      "inputs": [
        {
          "name": "_id",
          "type": "uint256"
        }
      ],
      "name": "Is_Rented",
      "outputs": [
        {
          "name": "",
          "type": "bool"
        }
      ],
      "payable": false,
      "stateMutability": "view",
      "type": "function"
    },
    {
      "constant": false,
      "inputs": [
        {
          "name": "_id",
          "type": "uint256"
        },
        {
          "name": "_newage",
          "type": "uint16"
        }
      ],
      "name": "ChangeAge",
      "outputs": [
        {
          "name": "",
          "type": "bool"
        }
      ],
      "payable": false,
      "stateMutability": "nonpayable",
      "type": "function"
    },
    {
      "constant": false,
      "inputs": [
        {
          "name": "newOwner",
          "type": "address"
        },
        {
          "name": "_newage",
          "type": "uint16"
        }
      ],
      "name": "transferOwnership",
      "outputs": [],
      "payable": false,
      "stateMutability": "nonpayable",
      "type": "function"
    },
    {
      "constant": false,
      "inputs": [
        {
          "name": "_from",
          "type": "address",
          "indexed": true
        },
        {
          "indexed": true,
          "name": "_to",
          "type": "address"
        },
        {
          "indexed": false,
          "name": "_tokenId",
          "type": "uint256"
        }
      ],
      "name": "Transfer",
      "outputs": [],
      "payable": false,
      "stateMutability": "nonpayable",
      "type": "event",
      "anonymous": false
    },
    {
      "anonymous": false,
      "inputs": [
        {
          "indexed": true,
          "name": "_owner",
          "type": "address"
        },
        {
          "indexed": true,
          "name": "_approved",
          "type": "address"
        },
        {
          "indexed": false,
          "name": "_tokenId",
          "type": "uint256"
        }
      ],
      "name": "Approval",
      "type": "event"
    },
    {
      "anonymous": false,
      "inputs": [
        {
          "indexed": false,
          "name": "_id",
          "type": "uint256"
        },
        {
          "indexed": false,
          "name": "_renter",
          "type": "address"
        },
        {
          "indexed": false,
          "name": "_tokenId",
          "type": "uint256"
        }
      ],
      "name": "RentCar",
      "type": "event"
    },
    {
      "anonymous": false,
      "inputs": [
        {
          "indexed": false,
          "name": "_id",
          "type": "uint256"
        },
        {
          "indexed": false,
          "name": "_name",
          "type": "string"
        }
      ],
      "name": "NewCar",
      "type": "event"
    },
    {
      "anonymous": false,
      "inputs": [
        {
          "indexed": true,
          "name": "previousOwner",
          "type": "address"
        },
        {
          "indexed": true,
          "name": "newOwner",
          "type": "address"
        }
      ],
      "name": "OwnershipTransferred",
      "type": "event"
    },
    {
      "anonymous": false,
      "inputs": [
        {
          "indexed": true,
          "name": "_name",
          "type": "string"
        },
        {
          "indexed": true,
          "name": "_age",
          "type": "uint16"
        }
      ],
      "name": "Create_token",
      "type": "function",
      "constant": false,
      "outputs": [],
      "payable": false,
      "stateMutability": "nonpayable"
    },
    {
      "constant": false,
      "inputs": [
        {
          "name": "_tokenId",
          "type": "uint256"
        },
        {
          "name": "_age",
          "type": "uint16"
        }
      ],
      "name": "Rent_Car",
      "outputs": [],
      "payable": true,
      "stateMutability": "payable",
      "type": "function"
    },
    {
      "constant": false,
      "inputs": [
        {
          "name": "_tokenId",
          "type": "uint256"
        },
        {
          "name": "_oil",
          "type": "uint256"
        },
        {
          "name": "crashes",
          "type": "uint16"
        }
      ],
      "name": "Return_Car",
      "outputs": [],
      "payable": true,
      "stateMutability": "payable",
      "type": "function"
    },
    {
      "constant": false,
      "inputs": [
        {
          "name": "_tokenId",
          "type": "uint256"
        },
        {
          "name": "_oil",
          "type": "uint256"
        },
        {
          "name": "crashes",
          "type": "uint16"
        }
      ],
      "name": "Return_Car",
      "outputs": [],
      "payable": true,
      "stateMutability": "payable",
      "type": "function"
    }
  ],
  "bytecode": "0x60806040526001600460006101000a81548161ffff021916908361ffff160217905550336000806101000a81548173ffffffffffffffffffffffffffffffffffffffff021916908373ffffffffffffffffffffffffffffffffffffffff1602179055506000809054906101000a900473ffffffffffffffffffffffffffffffffffffffff1673ffffffffffffffffffffffffffffffffffffffff16600073ffffffffffffffffffffffffffffffffffffffff167f8be0079c531659141344cd1fd0a4f28419497f9722a3daafe3b4186f6b6457e060405160405180910390a3611fdf806100ed6000396000f3fe6080604052600436106100f1576000357c0100000000000000000000000000000000000000000000000000000000900463ffffffff16806306fdde03146100f6578063075a817414610186578063081812fc146101b4578063095ea7b31461022f57806323b872dd1461028a578063355e6037146103055780634d645e57146103d757806361c9bd8e1461041d5780636352211e146104f357806370a082311461056e578063715018a6146105d35780638da5cb5b146105ea5780638f32d59b1461064157806395d89b4114610670578063d653f60f14610700578063e07ec44a14610753578063f2fde38b1461079c575b600080fd5b34801561010257600080fd5b5061010b6107ed565b6040518080602001828103825283818151815260200191508051906020019080838360005b8381101561014b578082015181840152602081019050610130565b50505050905090810190601f1680156101785780820380516001836020036101000a031916815260200191505b509250505060405180910390f35b6101b26004803603602081101561019c57600080fd5b8101908080359060200190929190505050610826565b005b3480156101c057600080fd5b506101ed600480360360208110156101d757600080fd5b8101908080359060200190929190505050610a00565b604051808273ffffffffffffffffffffffffffffffffffffffff1673ffffffffffffffffffffffffffffffffffffffff16815260200191505060405180910390f35b34801561023b57600080fd5b506102886004803603604081101561025257600080fd5b81019080803573ffffffffffffffffffffffffffffffffffffffff16906020019092919080359060200190929190505050610a4f565b005b34801561029657600080fd5b50610303600480360360608110156102ad57600080fd5b81019080803573ffffffffffffffffffffffffffffffffffffffff169060200190929190803573ffffffffffffffffffffffffffffffffffffffff16906020019092919080359060200190929190505050610b5d565b005b34801561031157600080fd5b506103d56004803603604081101561032857600080fd5b81019080803590602001909291908035906020019064010000000081111561034f57600080fd5b82018360208201111561036157600080fd5b8035906020019184600183028401116401000000008311171561038357600080fd5b91908080601f016020809104026020016040519081016040528093929190818152602001838380828437600081840152601f19601f820116905080830192505050505050509192919290505050610e40565b005b61041b600480360360608110156103ed57600080fd5b810190808035906020019092919080359060200190929190803561ffff169060200190929190505050610f5e565b005b34801561042957600080fd5b506104f16004803603604081101561044057600080fd5b810190808035906020019064010000000081111561045d57600080fd5b82018360208201111561046f57600080fd5b8035906020019184600183028401116401000000008311171561049157600080fd5b91908080601f016020809104026020016040519081016040528093929190818152602001838380828437600081840152601f19601f820116905080830192505050505050509192919290803561ffff169060200190929190505050611327565b005b3480156104ff57600080fd5b5061052c6004803603602081101561051657600080fd5b8101908080359060200190929190505050611336565b604051808273ffffffffffffffffffffffffffffffffffffffff1673ffffffffffffffffffffffffffffffffffffffff16815260200191505060405180910390f35b34801561057a57600080fd5b506105bd6004803603602081101561059157600080fd5b81019080803573ffffffffffffffffffffffffffffffffffffffff169060200190929190505050611380565b6040518082815260200191505060405180910390f35b3480156105df57600080fd5b506105e86113c9565b005b3480156105f657600080fd5b506105ff611504565b604051808273ffffffffffffffffffffffffffffffffffffffff1673ffffffffffffffffffffffffffffffffffffffff16815260200191505060405180910390f35b34801561064d57600080fd5b5061065661152d565b604051808215151515815260200191505060405180910390f35b34801561067c57600080fd5b50610685611584565b6040518080602001828103825283818151815260200191508051906020019080838360005b838110156106c55780820151818401526020810190506106aa565b50505050905090810190601f1680156106f25780820380516001836020036101000a031916815260200191505b509250505060405180910390f35b34801561070c57600080fd5b506107396004803603602081101561072357600080fd5b81019080803590602001909291905050506115bd565b604051808215151515815260200191505060405180910390f35b34801561075f57600080fd5b5061079a6004803603604081101561077657600080fd5b8101908080359060200190929190803561ffff169060200190929190505050611676565b005b3480156107a857600080fd5b506107eb600480360360208110156107bf57600080fd5b81019080803573ffffffffffffffffffffffffffffffffffffffff16906020019092919050505061179a565b005b6040805190810160405280600681526020017f56746f6b656e000000000000000000000000000000000000000000000000000081525081565b60001515610833826115bd565b151514801561084a5750670de0b6b3a76400003410155b15156108be576040517f08c379a00000000000000000000000000000000000000000000000000000000081526004018080602001828103825260158152602001807f4661696c656420746f2072656e7420612063617221000000000000000000000081525060200191505060405180910390fd5b600460009054906101000a900461ffff1661ffff1642016003828154811015156108e457fe5b9060005260206000209060060201600301819055506109033382610a4f565b60038181548110151561091257fe5b906000526020600020906006020160010160009054906101000a900473ffffffffffffffffffffffffffffffffffffffff1673ffffffffffffffffffffffffffffffffffffffff166108fc670de0b6b3a76400009081150290604051600060405180830381858888f19350505050158015610991573d6000803e3d6000fd5b507fad492e13589b6327ec60996578a727e62ddef3283761fc82d292e50654780c0d8133604051808381526020018273ffffffffffffffffffffffffffffffffffffffff1673ffffffffffffffffffffffffffffffffffffffff1681526020019250505060405180910390a150565b600080600383815481101515610a1257fe5b906000526020600020906006020160020160009054906101000a900473ffffffffffffffffffffffffffffffffffffffff16905080915050919050565b600082905080600383815481101515610a6457fe5b906000526020600020906006020160020160006101000a81548173ffffffffffffffffffffffffffffffffffffffff021916908373ffffffffffffffffffffffffffffffffffffffff1602179055508273ffffffffffffffffffffffffffffffffffffffff16600383815481101515610ad957fe5b906000526020600020906006020160010160009054906101000a900473ffffffffffffffffffffffffffffffffffffffff1673ffffffffffffffffffffffffffffffffffffffff167f8c5be1e5ebec7d5bd14f71427d1e84f3dd0314c0f7b2291e5b200ac8c7c3b925846040518082815260200191505060405180910390a3505050565b8273ffffffffffffffffffffffffffffffffffffffff163373ffffffffffffffffffffffffffffffffffffffff16148015610c035750600381815481101515610ba257fe5b906000526020600020906006020160010160009054906101000a900473ffffffffffffffffffffffffffffffffffffffff1673ffffffffffffffffffffffffffffffffffffffff168373ffffffffffffffffffffffffffffffffffffffff16145b1515610c77576040517f08c379a00000000000000000000000000000000000000000000000000000000081526004018080602001828103825260128152602001807f4661696c656420746f207472616e66657221000000000000000000000000000081525060200191505060405180910390fd5b6000829050806001600084815260200190815260200160002060006101000a81548173ffffffffffffffffffffffffffffffffffffffff021916908373ffffffffffffffffffffffffffffffffffffffff160217905550610d216001600260008773ffffffffffffffffffffffffffffffffffffffff1673ffffffffffffffffffffffffffffffffffffffff1681526020019081526020016000205461182290919063ffffffff16565b50610d756001600260008673ffffffffffffffffffffffffffffffffffffffff1673ffffffffffffffffffffffffffffffffffffffff168152602001908152602001600020546118ad90919063ffffffff16565b5080600383815481101515610d8657fe5b906000526020600020906006020160010160006101000a81548173ffffffffffffffffffffffffffffffffffffffff021916908373ffffffffffffffffffffffffffffffffffffffff1602179055508273ffffffffffffffffffffffffffffffffffffffff168473ffffffffffffffffffffffffffffffffffffffff167fddf252ad1be2c89b69c2b068fc378daa952ba7f163c4a11628f55a4df523b3ef846040518082815260200191505060405180910390a350505050565b813373ffffffffffffffffffffffffffffffffffffffff16600382815481101515610e6757fe5b906000526020600020906006020160010160009054906101000a900473ffffffffffffffffffffffffffffffffffffffff1673ffffffffffffffffffffffffffffffffffffffff16141515610f24576040517f08c379a000000000000000000000000000000000000000000000000000000000815260040180806020018281038252600e8152602001807f4e6f7420746865206f776e65722100000000000000000000000000000000000081525060200191505060405180910390fd5b81600384815481101515610f3457fe5b90600052602060002090600602016000019080519060200190610f58929190611e10565b50505050565b600383815481101515610f6d57fe5b906000526020600020906006020160020160009054906101000a900473ffffffffffffffffffffffffffffffffffffffff1673ffffffffffffffffffffffffffffffffffffffff163373ffffffffffffffffffffffffffffffffffffffff16141515611041576040517f08c379a00000000000000000000000000000000000000000000000000000000081526004018080602001828103825260178152602001807f4661696c656420746f2072657475726e2061206361722100000000000000000081525060200191505060405180910390fd5b60008060038581548110151561105357fe5b906000526020600020906006020160010160009054906101000a900473ffffffffffffffffffffffffffffffffffffffff1660038681548110151561109457fe5b906000526020600020906006020160020160006101000a81548173ffffffffffffffffffffffffffffffffffffffff021916908373ffffffffffffffffffffffffffffffffffffffff1602179055506003858154811015156110f257fe5b9060005260206000209060060201600301544211158015611117575060008361ffff16145b1561123c57600190506032840260038681548110151561113357fe5b906000526020600020906006020160050160029054906101000a900461ffff1661ffff160191503373ffffffffffffffffffffffffffffffffffffffff166108fc670de0b6b3a76400009081150290604051600060405180830381858888f193505050501580156111a8573d6000803e3d6000fd5b506003858154811015156111b857fe5b906000526020600020906006020160010160009054906101000a900473ffffffffffffffffffffffffffffffffffffffff1673ffffffffffffffffffffffffffffffffffffffff166108fc64e8d4a5100084029081150290604051600060405180830381858888f19350505050158015611236573d6000803e3d6000fd5b50611320565b6032840260038681548110151561124f57fe5b906000526020600020906006020160050160029054906101000a900461ffff1661ffff1601915060008361ffff1614151561129157600a830261ffff16820191505b6003858154811015156112a057fe5b906000526020600020906006020160010160009054906101000a900473ffffffffffffffffffffffffffffffffffffffff1673ffffffffffffffffffffffffffffffffffffffff166108fc64e8d4a5100084029081150290604051600060405180830381858888f1935050505015801561131e573d6000803e3d6000fd5b505b5050505050565b611332828233611937565b5050565b600060038281548110151561134757fe5b906000526020600020906006020160010160009054906101000a900473ffffffffffffffffffffffffffffffffffffffff169050919050565b6000600260008373ffffffffffffffffffffffffffffffffffffffff1673ffffffffffffffffffffffffffffffffffffffff168152602001908152602001600020549050919050565b6113d161152d565b1515611445576040517f08c379a00000000000000000000000000000000000000000000000000000000081526004018080602001828103825260208152602001807f4f776e61626c653a2063616c6c6572206973206e6f7420746865206f776e657281525060200191505060405180910390fd5b600073ffffffffffffffffffffffffffffffffffffffff166000809054906101000a900473ffffffffffffffffffffffffffffffffffffffff1673ffffffffffffffffffffffffffffffffffffffff167f8be0079c531659141344cd1fd0a4f28419497f9722a3daafe3b4186f6b6457e060405160405180910390a360008060006101000a81548173ffffffffffffffffffffffffffffffffffffffff021916908373ffffffffffffffffffffffffffffffffffffffff160217905550565b60008060009054906101000a900473ffffffffffffffffffffffffffffffffffffffff16905090565b60008060009054906101000a900473ffffffffffffffffffffffffffffffffffffffff1673ffffffffffffffffffffffffffffffffffffffff163373ffffffffffffffffffffffffffffffffffffffff1614905090565b6040805190810160405280600181526020017f560000000000000000000000000000000000000000000000000000000000000081525081565b60006003828154811015156115ce57fe5b906000526020600020906006020160020160009054906101000a900473ffffffffffffffffffffffffffffffffffffffff1673ffffffffffffffffffffffffffffffffffffffff1660038381548110151561162557fe5b906000526020600020906006020160010160009054906101000a900473ffffffffffffffffffffffffffffffffffffffff1673ffffffffffffffffffffffffffffffffffffffff1614159050919050565b813373ffffffffffffffffffffffffffffffffffffffff1660038281548110151561169d57fe5b906000526020600020906006020160010160009054906101000a900473ffffffffffffffffffffffffffffffffffffffff1673ffffffffffffffffffffffffffffffffffffffff1614151561175a576040517f08c379a000000000000000000000000000000000000000000000000000000000815260040180806020018281038252600e8152602001807f4e6f7420746865206f776e65722100000000000000000000000000000000000081525060200191505060405180910390fd5b8160038481548110151561176a57fe5b906000526020600020906006020160050160006101000a81548161ffff021916908361ffff160217905550505050565b6117a261152d565b1515611816576040517f08c379a00000000000000000000000000000000000000000000000000000000081526004018080602001828103825260208152602001807f4f776e61626c653a2063616c6c6572206973206e6f7420746865206f776e657281525060200191505060405180910390fd5b61181f81611c87565b50565b600082821115151561189c576040517f08c379a000000000000000000000000000000000000000000000000000000000815260040180806020018281038252601e8152602001807f536166654d6174683a207375627472616374696f6e206f766572666c6f77000081525060200191505060405180910390fd5b600082840390508091505092915050565b600080828401905083811015151561192d576040517f08c379a000000000000000000000000000000000000000000000000000000000815260040180806020018281038252601b8152602001807f536166654d6174683a206164646974696f6e206f766572666c6f77000000000081525060200191505060405180910390fd5b8091505092915050565b61193f611e90565b610100604051908101604052808581526020018373ffffffffffffffffffffffffffffffffffffffff1681526020018373ffffffffffffffffffffffffffffffffffffffff168152602001428152602001600081526020018461ffff168152602001600a61ffff168152602001600061ffff16815250905060006001600383908060018154018082558091505090600182039060005260206000209060060201600090919290919091506000820151816000019080519060200190611a05929190611f0e565b5060208201518160010160006101000a81548173ffffffffffffffffffffffffffffffffffffffff021916908373ffffffffffffffffffffffffffffffffffffffff16021790555060408201518160020160006101000a81548173ffffffffffffffffffffffffffffffffffffffff021916908373ffffffffffffffffffffffffffffffffffffffff160217905550606082015181600301556080820151816004015560a08201518160050160006101000a81548161ffff021916908361ffff16021790555060c08201518160050160026101000a81548161ffff021916908361ffff16021790555060e08201518160050160046101000a81548161ffff021916908361ffff160217905550505003905080600382815481101515611b2657fe5b906000526020600020906006020160040181905550826001600083815260200190815260200160002060006101000a81548173ffffffffffffffffffffffffffffffffffffffff021916908373ffffffffffffffffffffffffffffffffffffffff160217905550600260008473ffffffffffffffffffffffffffffffffffffffff1673ffffffffffffffffffffffffffffffffffffffff168152602001908152602001600020600081548092919060010191905055507fa9d268463d5f834fc19c6b87f103aef5d71f63e24312ab916432533c18ad064481866040518083815260200180602001828103825283818151815260200191508051906020019080838360005b83811015611c45578082015181840152602081019050611c2a565b50505050905090810190601f168015611c725780820380516001836020036101000a031916815260200191505b50935050505060405180910390a15050505050565b600073ffffffffffffffffffffffffffffffffffffffff168173ffffffffffffffffffffffffffffffffffffffff1614151515611d52576040517f08c379a00000000000000000000000000000000000000000000000000000000081526004018080602001828103825260268152602001807f4f776e61626c653a206e6577206f776e657220697320746865207a65726f206181526020017f646472657373000000000000000000000000000000000000000000000000000081525060400191505060405180910390fd5b8073ffffffffffffffffffffffffffffffffffffffff166000809054906101000a900473ffffffffffffffffffffffffffffffffffffffff1673ffffffffffffffffffffffffffffffffffffffff167f8be0079c531659141344cd1fd0a4f28419497f9722a3daafe3b4186f6b6457e060405160405180910390a3806000806101000a81548173ffffffffffffffffffffffffffffffffffffffff021916908373ffffffffffffffffffffffffffffffffffffffff16021790555050565b828054600181600116156101000203166002900490600052602060002090601f016020900481019282601f10611e5157805160ff1916838001178555611e7f565b82800160010185558215611e7f579182015b82811115611e7e578251825591602001919060010190611e63565b5b509050611e8c9190611f8e565b5090565b6101006040519081016040528060608152602001600073ffffffffffffffffffffffffffffffffffffffff168152602001600073ffffffffffffffffffffffffffffffffffffffff1681526020016000815260200160008152602001600061ffff168152602001600061ffff168152602001600061ffff1681525090565b828054600181600116156101000203166002900490600052602060002090601f016020900481019282601f10611f4f57805160ff1916838001178555611f7d565b82800160010185558215611f7d579182015b82811115611f7c578251825591602001919060010190611f61565b5b509050611f8a9190611f8e565b5090565b611fb091905b80821115611fac576000816000905550600101611f94565b5090565b9056fea165627a7a7230582098b890c6e69266521a3f718ea61c280e14c6bf29525126f176bc1169c517e0520029",
  "source": "pragma solidity ^0.5.0;\n\nimport \"./CarHelper.sol\";\n\ncontract CarRenter is CarHelper, CarOwnership {\n    uint16 basic_renttime = 1;\n    \n    function Create_token(string memory _name, uint16 _age) public { //called by car wallet\n        Add_Car(_name, _age, msg.sender);\n    }\n    \n    function Rent_Car(uint _tokenId) public payable { //called by user\n        require(Is_Rented(_tokenId) == false && msg.value >= 1 ether, \"Failed to rent a car!\");\n        cars[_tokenId].rent_time = now + basic_renttime;\n        approve(msg.sender, _tokenId);\n        cars[_tokenId].owner.transfer(1 ether); //for bail\n        emit RentCar(_tokenId, msg.sender);\n    }\n\n    function Return_Car(uint _tokenId, uint _oil, uint16 crashes) public payable {\n        require(msg.sender == cars[_tokenId].renter, \"Failed to return a car!\");\n        uint to_owner;\n        uint to_renter; //return the bail\n\n        cars[_tokenId].renter = cars[_tokenId].owner;\n        if (now <= cars[_tokenId].rent_time && crashes == 0) { // no crash and return on time\n            to_renter = 1;\n            to_owner = cars[_tokenId].price + _oil * 50;\n            msg.sender.transfer(1 ether);\n            cars[_tokenId].owner.transfer(to_owner * 1 szabo);\n        }\n        else {\n            to_owner = cars[_tokenId].price + _oil * 50;\n            if (crashes != 0){\n                to_owner += crashes * 10;\n            }\n            cars[_tokenId].owner.transfer(to_owner * 1 szabo);\n        }\n    }\n\n}\n",
  "sourcePath": "/home/stevenchen//Automotive-contract/contracts/CarRenter.sol",
  "compiler": {
    "name": "solc",
    "version": "0.5.0+commit.1d4f565a.Emscripten.clang"
  },
  "schemaVersion": "3.0.9",
  "updatedAt": "2019-05-24T14:13:03.029Z",
  "devdoc": {
    "methods": {
      "isOwner()": {
        "return": "true if `msg.sender` is the owner of the contract."
      },
      "owner()": {
        "return": "the address of the owner."
      },
      "renounceOwnership()": {
        "details": "Allows the current owner to relinquish control of the contract. It will not be possible to call the functions with the `onlyOwner` modifier anymore."
      },
      "transferOwnership(address)": {
        "details": "Allows the current owner to transfer control of the contract to a newOwner.",
        "params": {
          "newOwner": "The address to transfer ownership to."
        }
      }
    }
  },
  "userdoc": {
    "methods": {
      "renounceOwnership()": {
        "notice": "Renouncing ownership will leave the contract without an owner, thereby removing any functionality that is only available to the owner."
      }
    }
  }
}